{
  "contractName": "PaymentContract",
  "abi": [
    {
      "inputs": [
        {
          "internalType": "address",
          "name": "_swapRouter",
          "type": "address"
        },
        {
          "internalType": "address",
          "name": "_WBNB",
          "type": "address"
        },
        {
          "internalType": "address",
          "name": "_stableCoin",
          "type": "address"
        },
        {
          "internalType": "uint256",
          "name": "_slippage",
          "type": "uint256"
        }
      ],
      "stateMutability": "nonpayable",
      "type": "constructor"
    },
    {
      "anonymous": false,
      "inputs": [
        {
          "indexed": false,
          "internalType": "string",
          "name": "name",
          "type": "string"
        },
        {
          "indexed": false,
          "internalType": "string",
          "name": "_vendorId",
          "type": "string"
        }
      ],
      "name": "newVendorRegistered",
      "type": "event"
    },
    {
      "anonymous": false,
      "inputs": [
        {
          "indexed": false,
          "internalType": "string",
          "name": "_transactionId",
          "type": "string"
        },
        {
          "indexed": false,
          "internalType": "uint256",
          "name": "_amountInUSD",
          "type": "uint256"
        },
        {
          "indexed": false,
          "internalType": "string",
          "name": "_vendorId",
          "type": "string"
        },
        {
          "indexed": false,
          "internalType": "string",
          "name": "_fiatSymbol",
          "type": "string"
        },
        {
          "indexed": false,
          "internalType": "uint256",
          "name": "_fiatAmount",
          "type": "uint256"
        },
        {
          "indexed": false,
          "internalType": "address",
          "name": "buyer",
          "type": "address"
        },
        {
          "indexed": false,
          "internalType": "uint256",
          "name": "_timestamp",
          "type": "uint256"
        }
      ],
      "name": "paymentSuccessful",
      "type": "event"
    },
    {
      "anonymous": false,
      "inputs": [
        {
          "indexed": false,
          "internalType": "uint256",
          "name": "_tokenAmount",
          "type": "uint256"
        },
        {
          "indexed": false,
          "internalType": "uint256",
          "name": "_amountInUSD",
          "type": "uint256"
        },
        {
          "indexed": false,
          "internalType": "uint256[]",
          "name": "amountOut",
          "type": "uint256[]"
        },
        {
          "indexed": false,
          "internalType": "string",
          "name": "_tokenSymbol",
          "type": "string"
        },
        {
          "indexed": false,
          "internalType": "string",
          "name": "_stableCoinSymbol",
          "type": "string"
        },
        {
          "indexed": false,
          "internalType": "address",
          "name": "buyer",
          "type": "address"
        },
        {
          "indexed": false,
          "internalType": "string",
          "name": "_transactionId",
          "type": "string"
        }
      ],
      "name": "swapSuccessful",
      "type": "event"
    },
    {
      "anonymous": false,
      "inputs": [
        {
          "indexed": false,
          "internalType": "string",
          "name": "_vendorId",
          "type": "string"
        },
        {
          "indexed": false,
          "internalType": "string",
          "name": "_transactionId",
          "type": "string"
        },
        {
          "indexed": false,
          "internalType": "string",
          "name": "_tradeId",
          "type": "string"
        },
        {
          "indexed": false,
          "internalType": "address",
          "name": "_traderAddress",
          "type": "address"
        },
        {
          "indexed": false,
          "internalType": "uint256",
          "name": "_amount",
          "type": "uint256"
        },
        {
          "indexed": false,
          "internalType": "string",
          "name": "_stableCoinSymbol",
          "type": "string"
        }
      ],
      "name": "tradeSuccessful",
      "type": "event"
    },
    {
      "anonymous": false,
      "inputs": [
        {
          "indexed": false,
          "internalType": "address",
          "name": "_previousRouter",
          "type": "address"
        },
        {
          "indexed": false,
          "internalType": "address",
          "name": "_newRouter",
          "type": "address"
        }
      ],
      "name": "updatedRouter",
      "type": "event"
    },
    {
      "anonymous": false,
      "inputs": [
        {
          "indexed": false,
          "internalType": "uint256",
          "name": "_previousSlippage",
          "type": "uint256"
        },
        {
          "indexed": false,
          "internalType": "uint256",
          "name": "_newSlippage",
          "type": "uint256"
        }
      ],
      "name": "updatedSlippage",
      "type": "event"
    },
    {
      "anonymous": false,
      "inputs": [
        {
          "indexed": false,
          "internalType": "address",
          "name": "_previousStableCoin",
          "type": "address"
        },
        {
          "indexed": false,
          "internalType": "address",
          "name": "_newStableCoin",
          "type": "address"
        }
      ],
      "name": "updatedStableCoin",
      "type": "event"
    },
    {
      "inputs": [],
      "name": "WBNB",
      "outputs": [
        {
          "internalType": "address",
          "name": "",
          "type": "address"
        }
      ],
      "stateMutability": "view",
      "type": "function",
      "constant": true
    },
    {
      "inputs": [],
      "name": "owner",
      "outputs": [
        {
          "internalType": "address",
          "name": "",
          "type": "address"
        }
      ],
      "stateMutability": "view",
      "type": "function",
      "constant": true
    },
    {
      "inputs": [],
      "name": "slippage",
      "outputs": [
        {
          "internalType": "uint256",
          "name": "",
          "type": "uint256"
        }
      ],
      "stateMutability": "view",
      "type": "function",
      "constant": true
    },
    {
      "inputs": [],
      "name": "stableCoin",
      "outputs": [
        {
          "internalType": "address",
          "name": "",
          "type": "address"
        }
      ],
      "stateMutability": "view",
      "type": "function",
      "constant": true
    },
    {
      "inputs": [],
      "name": "swapRouter",
      "outputs": [
        {
          "internalType": "address",
          "name": "",
          "type": "address"
        }
      ],
      "stateMutability": "view",
      "type": "function",
      "constant": true
    },
    {
      "inputs": [
        {
          "internalType": "string",
          "name": "",
          "type": "string"
        }
      ],
      "name": "vendors",
      "outputs": [
        {
          "internalType": "string",
          "name": "vendorName",
          "type": "string"
        },
        {
          "internalType": "bool",
          "name": "isValid",
          "type": "bool"
        }
      ],
      "stateMutability": "view",
      "type": "function",
      "constant": true
    },
    {
      "inputs": [
        {
          "internalType": "address",
          "name": "_swapRouter",
          "type": "address"
        },
        {
          "internalType": "address",
          "name": "_WBNB",
          "type": "address"
        }
      ],
      "name": "setRouter",
      "outputs": [],
      "stateMutability": "nonpayable",
      "type": "function"
    },
    {
      "inputs": [
        {
          "internalType": "address",
          "name": "_stableCoin",
          "type": "address"
        }
      ],
      "name": "setStableCoin",
      "outputs": [],
      "stateMutability": "nonpayable",
      "type": "function"
    },
    {
      "inputs": [
        {
          "internalType": "uint256",
          "name": "_slippage",
          "type": "uint256"
        }
      ],
      "name": "setSlippage",
      "outputs": [],
      "stateMutability": "nonpayable",
      "type": "function"
    },
    {
      "inputs": [
        {
          "internalType": "string",
          "name": "_name",
          "type": "string"
        },
        {
          "internalType": "string",
          "name": "_vendorId",
          "type": "string"
        }
      ],
      "name": "registerANewVendor",
      "outputs": [],
      "stateMutability": "nonpayable",
      "type": "function"
    },
    {
      "inputs": [
        {
          "internalType": "string",
          "name": "vendorId",
          "type": "string"
        },
        {
          "internalType": "string",
          "name": "stableCoinSymbol",
          "type": "string"
        }
      ],
      "name": "vendorBalance",
      "outputs": [
        {
          "internalType": "uint256",
          "name": "",
          "type": "uint256"
        }
      ],
      "stateMutability": "view",
      "type": "function",
      "constant": true
    },
    {
      "inputs": [
        {
          "internalType": "string",
          "name": "_vendorId",
          "type": "string"
        },
        {
          "internalType": "address",
          "name": "_token",
          "type": "address"
        },
        {
          "internalType": "uint256",
          "name": "_amountInUSD",
          "type": "uint256"
        },
        {
          "internalType": "string",
          "name": "_fiatSymbol",
          "type": "string"
        },
        {
          "internalType": "uint256",
          "name": "_fiatAmount",
          "type": "uint256"
        },
        {
          "internalType": "string",
          "name": "_tokenSymbol",
          "type": "string"
        },
        {
          "internalType": "string",
          "name": "_transactionId",
          "type": "string"
        }
      ],
      "name": "makePayment",
      "outputs": [],
      "stateMutability": "nonpayable",
      "type": "function"
    },
    {
      "inputs": [
        {
          "internalType": "uint256",
          "name": "_amountInUSD",
          "type": "uint256"
        },
        {
          "internalType": "address[]",
          "name": "_path",
          "type": "address[]"
        }
      ],
      "name": "_requiredTokenAmount",
      "outputs": [
        {
          "internalType": "uint256",
          "name": "",
          "type": "uint256"
        }
      ],
      "stateMutability": "view",
      "type": "function",
      "constant": true
    },
    {
      "inputs": [
        {
          "internalType": "uint256",
          "name": "_amount",
          "type": "uint256"
        },
        {
          "internalType": "string",
          "name": "_from",
          "type": "string"
        },
        {
          "internalType": "address",
          "name": "_traderAddress",
          "type": "address"
        },
        {
          "internalType": "string",
          "name": "_transactionId",
          "type": "string"
        },
        {
          "internalType": "string",
          "name": "_tradeId",
          "type": "string"
        },
        {
          "internalType": "string",
          "name": "_stableCoinSymbol",
          "type": "string"
        }
      ],
      "name": "sendTokens",
      "outputs": [],
      "stateMutability": "nonpayable",
      "type": "function"
    }
  ],
  "bytecode": "0x608060405234801561001057600080fd5b506040516131633803806131638339818101604052608081101561003357600080fd5b810190808051906020019092919080519060200190929190805190602001909291908051906020019092919050505083600160006101000a81548173ffffffffffffffffffffffffffffffffffffffff021916908373ffffffffffffffffffffffffffffffffffffffff16021790555082600260006101000a81548173ffffffffffffffffffffffffffffffffffffffff021916908373ffffffffffffffffffffffffffffffffffffffff16021790555081600360006101000a81548173ffffffffffffffffffffffffffffffffffffffff021916908373ffffffffffffffffffffffffffffffffffffffff160217905550600360009054906101000a900473ffffffffffffffffffffffffffffffffffffffff16600560006101000a81548173ffffffffffffffffffffffffffffffffffffffff021916908373ffffffffffffffffffffffffffffffffffffffff16021790555080600481905550336000806101000a81548173ffffffffffffffffffffffffffffffffffffffff021916908373ffffffffffffffffffffffffffffffffffffffff16021790555050505050612f81806101e26000396000f3fe608060405234801561001057600080fd5b50600436106100ea5760003560e01c80638dd950021161008c578063c31c9c0711610066578063c31c9c0714610874578063e9db03ec146108a8578063f0fa55a914610b5c578063fb886ac814610b8a576100ea565b80638dd95002146106cf57806391fa0b5114610703578063992642e514610840576100ea565b806341d68b8f116100c857806341d68b8f146103fb57806354af24e71461045f578063761e0bc3146105c55780638da5cb5b1461069b576100ea565b806306762493146100ef57806323af4e17146103995780633e032a3b146103dd575b600080fd5b610397600480360360c081101561010557600080fd5b81019080803590602001909291908035906020019064010000000081111561012c57600080fd5b82018360208201111561013e57600080fd5b8035906020019184600183028401116401000000008311171561016057600080fd5b91908080601f016020809104026020016040519081016040528093929190818152602001838380828437600081840152601f19601f820116905080830192505050505050509192919290803573ffffffffffffffffffffffffffffffffffffffff169060200190929190803590602001906401000000008111156101e357600080fd5b8201836020820111156101f557600080fd5b8035906020019184600183028401116401000000008311171561021757600080fd5b91908080601f016020809104026020016040519081016040528093929190818152602001838380828437600081840152601f19601f8201169050808301925050505050505091929192908035906020019064010000000081111561027a57600080fd5b82018360208201111561028c57600080fd5b803590602001918460018302840111640100000000831117156102ae57600080fd5b91908080601f016020809104026020016040519081016040528093929190818152602001838380828437600081840152601f19601f8201169050808301925050505050505091929192908035906020019064010000000081111561031157600080fd5b82018360208201111561032357600080fd5b8035906020019184600183028401116401000000008311171561034557600080fd5b91908080601f016020809104026020016040519081016040528093929190818152602001838380828437600081840152601f19601f820116905080830192505050505050509192919290505050610cdc565b005b6103db600480360360208110156103af57600080fd5b81019080803573ffffffffffffffffffffffffffffffffffffffff1690602001909291905050506112fc565b005b6103e561148e565b6040518082815260200191505060405180910390f35b61045d6004803603604081101561041157600080fd5b81019080803573ffffffffffffffffffffffffffffffffffffffff169060200190929190803573ffffffffffffffffffffffffffffffffffffffff169060200190929190505050611494565b005b6105af6004803603604081101561047557600080fd5b810190808035906020019064010000000081111561049257600080fd5b8201836020820111156104a457600080fd5b803590602001918460018302840111640100000000831117156104c657600080fd5b91908080601f016020809104026020016040519081016040528093929190818152602001838380828437600081840152601f19601f8201169050808301925050505050505091929192908035906020019064010000000081111561052957600080fd5b82018360208201111561053b57600080fd5b8035906020019184600183028401116401000000008311171561055d57600080fd5b91908080601f016020809104026020016040519081016040528093929190818152602001838380828437600081840152601f19601f820116905080830192505050505050509192919290505050611605565b6040518082815260200191505060405180910390f35b610685600480360360408110156105db57600080fd5b81019080803590602001909291908035906020019064010000000081111561060257600080fd5b82018360208201111561061457600080fd5b8035906020019184602083028401116401000000008311171561063657600080fd5b919080806020026020016040519081016040528093929190818152602001838360200280828437600081840152601f19601f8201169050808301925050505050505091929192905050506116e3565b6040518082815260200191505060405180910390f35b6106a3611898565b604051808273ffffffffffffffffffffffffffffffffffffffff16815260200191505060405180910390f35b6106d76118bc565b604051808273ffffffffffffffffffffffffffffffffffffffff16815260200191505060405180910390f35b6107bc6004803603602081101561071957600080fd5b810190808035906020019064010000000081111561073657600080fd5b82018360208201111561074857600080fd5b8035906020019184600183028401116401000000008311171561076a57600080fd5b91908080601f016020809104026020016040519081016040528093929190818152602001838380828437600081840152601f19601f8201169050808301925050505050505091929192905050506118e2565b60405180806020018315158152602001828103825284818151815260200191508051906020019080838360005b838110156108045780820151818401526020810190506107e9565b50505050905090810190601f1680156108315780820380516001836020036101000a031916815260200191505b50935050505060405180910390f35b6108486119c1565b604051808273ffffffffffffffffffffffffffffffffffffffff16815260200191505060405180910390f35b61087c6119e7565b604051808273ffffffffffffffffffffffffffffffffffffffff16815260200191505060405180910390f35b610b5a600480360360e08110156108be57600080fd5b81019080803590602001906401000000008111156108db57600080fd5b8201836020820111156108ed57600080fd5b8035906020019184600183028401116401000000008311171561090f57600080fd5b91908080601f016020809104026020016040519081016040528093929190818152602001838380828437600081840152601f19601f820116905080830192505050505050509192919290803573ffffffffffffffffffffffffffffffffffffffff169060200190929190803590602001909291908035906020019064010000000081111561099c57600080fd5b8201836020820111156109ae57600080fd5b803590602001918460018302840111640100000000831117156109d057600080fd5b91908080601f016020809104026020016040519081016040528093929190818152602001838380828437600081840152601f19601f8201169050808301925050505050505091929192908035906020019092919080359060200190640100000000811115610a3d57600080fd5b820183602082011115610a4f57600080fd5b80359060200191846001830284011164010000000083111715610a7157600080fd5b91908080601f016020809104026020016040519081016040528093929190818152602001838380828437600081840152601f19601f82011690508083019250505050505050919291929080359060200190640100000000811115610ad457600080fd5b820183602082011115610ae657600080fd5b80359060200191846001830284011164010000000083111715610b0857600080fd5b91908080601f016020809104026020016040519081016040528093929190818152602001838380828437600081840152601f19601f820116905080830192505050505050509192919290505050611a0d565b005b610b8860048036036020811015610b7257600080fd5b81019080803590602001909291905050506123cb565b005b610cda60048036036040811015610ba057600080fd5b8101908080359060200190640100000000811115610bbd57600080fd5b820183602082011115610bcf57600080fd5b80359060200191846001830284011164010000000083111715610bf157600080fd5b91908080601f016020809104026020016040519081016040528093929190818152602001838380828437600081840152601f19601f82011690508083019250505050505050919291929080359060200190640100000000811115610c5457600080fd5b820183602082011115610c6657600080fd5b80359060200191846001830284011164010000000083111715610c8857600080fd5b91908080601f016020809104026020016040519081016040528093929190818152602001838380828437600081840152601f19601f820116905080830192505050505050509192919290505050612474565b005b60008054906101000a900473ffffffffffffffffffffffffffffffffffffffff1673ffffffffffffffffffffffffffffffffffffffff163373ffffffffffffffffffffffffffffffffffffffff1614610d3457600080fd5b6006856040518082805190602001908083835b60208310610d6a5780518252602082019150602081019050602083039250610d47565b6001836020036101000a0380198251168184511680821785525050505050509050019150509081526020016040518091039020600101816040518082805190602001908083835b60208310610dd45780518252602082019150602081019050602083039250610db1565b6001836020036101000a038019825116818451168082178552505050505050905001915050908152602001604051809103902054861115610e7d576040517f08c379a00000000000000000000000000000000000000000000000000000000081526004018080602001828103825260138152602001807f6e6f7420656e6f7567682062616c616e6365210000000000000000000000000081525060200191505060405180910390fd5b856006866040518082805190602001908083835b60208310610eb45780518252602082019150602081019050602083039250610e91565b6001836020036101000a0380198251168184511680821785525050505050509050019150509081526020016040518091039020600101826040518082805190602001908083835b60208310610f1e5780518252602082019150602081019050602083039250610efb565b6001836020036101000a038019825116818451168082178552505050505050905001915050908152602001604051809103902060008282540392505081905550610f8b600360009054906101000a900473ffffffffffffffffffffffffffffffffffffffff1685886126a6565b7f11f7a9a302d2d2a58e81e8f01e3b49e1f67f9b3ba4b5f8035f718fd67f552eeb858484878a600560009054906101000a900473ffffffffffffffffffffffffffffffffffffffff1673ffffffffffffffffffffffffffffffffffffffff166395d89b416040518163ffffffff1660e01b815260040160006040518083038186803b15801561101957600080fd5b505afa15801561102d573d6000803e3d6000fd5b505050506040513d6000823e3d601f19601f82011682018060405250602081101561105757600080fd5b810190808051604051939291908464010000000082111561107757600080fd5b8382019150602082018581111561108d57600080fd5b82518660018202830111640100000000821117156110aa57600080fd5b8083526020830192505050908051906020019080838360005b838110156110de5780820151818401526020810190506110c3565b50505050905090810190601f16801561110b5780820380516001836020036101000a031916815260200191505b50604052505050604051808060200180602001806020018773ffffffffffffffffffffffffffffffffffffffff1681526020018681526020018060200185810385528b818151815260200191508051906020019080838360005b83811015611180578082015181840152602081019050611165565b50505050905090810190601f1680156111ad5780820380516001836020036101000a031916815260200191505b5085810384528a818151815260200191508051906020019080838360005b838110156111e65780820151818401526020810190506111cb565b50505050905090810190601f1680156112135780820380516001836020036101000a031916815260200191505b50858103835289818151815260200191508051906020019080838360005b8381101561124c578082015181840152602081019050611231565b50505050905090810190601f1680156112795780820380516001836020036101000a031916815260200191505b50858103825286818151815260200191508051906020019080838360005b838110156112b2578082015181840152602081019050611297565b50505050905090810190601f1680156112df5780820380516001836020036101000a031916815260200191505b509a505050505050505050505060405180910390a1505050505050565b60008054906101000a900473ffffffffffffffffffffffffffffffffffffffff1673ffffffffffffffffffffffffffffffffffffffff163373ffffffffffffffffffffffffffffffffffffffff161461135457600080fd5b6000600360009054906101000a900473ffffffffffffffffffffffffffffffffffffffff16905081600360006101000a81548173ffffffffffffffffffffffffffffffffffffffff021916908373ffffffffffffffffffffffffffffffffffffffff160217905550600360009054906101000a900473ffffffffffffffffffffffffffffffffffffffff16600560006101000a81548173ffffffffffffffffffffffffffffffffffffffff021916908373ffffffffffffffffffffffffffffffffffffffff1602179055507fb64646de0bce2ae1a1d65c5b5e4e2fe97c72427d915acf6dbf37793e0bb9cf1e8183604051808373ffffffffffffffffffffffffffffffffffffffff1681526020018273ffffffffffffffffffffffffffffffffffffffff1681526020019250505060405180910390a15050565b60045481565b60008054906101000a900473ffffffffffffffffffffffffffffffffffffffff1673ffffffffffffffffffffffffffffffffffffffff163373ffffffffffffffffffffffffffffffffffffffff16146114ec57600080fd5b6000600160009054906101000a900473ffffffffffffffffffffffffffffffffffffffff16905082600160006101000a81548173ffffffffffffffffffffffffffffffffffffffff021916908373ffffffffffffffffffffffffffffffffffffffff16021790555081600260006101000a81548173ffffffffffffffffffffffffffffffffffffffff021916908373ffffffffffffffffffffffffffffffffffffffff1602179055507feb96dbe4c4840412db0e284bfada15df144031c15a2039d8dd4724959dcbdc198184604051808373ffffffffffffffffffffffffffffffffffffffff1681526020018273ffffffffffffffffffffffffffffffffffffffff1681526020019250505060405180910390a1505050565b60006006836040518082805190602001908083835b6020831061163d578051825260208201915060208101905060208303925061161a565b6001836020036101000a0380198251168184511680821785525050505050509050019150509081526020016040518091039020600101826040518082805190602001908083835b602083106116a75780518252602082019150602081019050602083039250611684565b6001836020036101000a038019825116818451168082178552505050505050905001915050908152602001604051809103902054905092915050565b60006060600160009054906101000a900473ffffffffffffffffffffffffffffffffffffffff1673ffffffffffffffffffffffffffffffffffffffff16631f00ca7485856040518363ffffffff1660e01b81526004018083815260200180602001828103825283818151815260200191508051906020019060200280838360005b8381101561177f578082015181840152602081019050611764565b50505050905001935050505060006040518083038186803b1580156117a357600080fd5b505afa1580156117b7573d6000803e3d6000fd5b505050506040513d6000823e3d601f19601f8201168201806040525060208110156117e157600080fd5b810190808051604051939291908464010000000082111561180157600080fd5b8382019150602082018581111561181757600080fd5b825186602082028301116401000000008211171561183457600080fd5b8083526020830192505050908051906020019060200280838360005b8381101561186b578082015181840152602081019050611850565b5050505090500160405250505090508060008151811061188757fe5b602002602001015191505092915050565b60008054906101000a900473ffffffffffffffffffffffffffffffffffffffff1681565b600260009054906101000a900473ffffffffffffffffffffffffffffffffffffffff1681565b600681805160208101820180518482526020830160208501208183528095505050505050600091509050806000018054600181600116156101000203166002900480601f0160208091040260200160405190810160405280929190818152602001828054600181600116156101000203166002900480156119a45780601f10611979576101008083540402835291602001916119a4565b820191906000526020600020905b81548152906001019060200180831161198757829003601f168201915b5050505050908060020160009054906101000a900460ff16905082565b600360009054906101000a900473ffffffffffffffffffffffffffffffffffffffff1681565b600160009054906101000a900473ffffffffffffffffffffffffffffffffffffffff1681565b600115156006886040518082805190602001908083835b60208310611a475780518252602082019150602081019050602083039250611a24565b6001836020036101000a038019825116818451168082178552505050505050905001915050908152602001604051809103902060020160009054906101000a900460ff16151514611b00576040517f08c379a00000000000000000000000000000000000000000000000000000000081526004018080602001828103825260168152602001807f76656e646f7220646f6573206e6f74206578697374210000000000000000000081525060200191505060405180910390fd5b6060600267ffffffffffffffff81118015611b1a57600080fd5b50604051908082528060200260200182016040528015611b495781602001602082028036833780820191505090505b5090508681600081518110611b5a57fe5b602002602001019073ffffffffffffffffffffffffffffffffffffffff16908173ffffffffffffffffffffffffffffffffffffffff1681525050600360009054906101000a900473ffffffffffffffffffffffffffffffffffffffff1681600181518110611bc457fe5b602002602001019073ffffffffffffffffffffffffffffffffffffffff16908173ffffffffffffffffffffffffffffffffffffffff1681525050600360009054906101000a900473ffffffffffffffffffffffffffffffffffffffff1673ffffffffffffffffffffffffffffffffffffffff168773ffffffffffffffffffffffffffffffffffffffff1614611fd0576000611c5f87836116e3565b9050611c6d88333084612889565b6060611c7a828985612a6e565b90507fa7461e6e6612d58f276443450252cd19ebc2b3393c607693672db279fdb700c082898388600560009054906101000a900473ffffffffffffffffffffffffffffffffffffffff1673ffffffffffffffffffffffffffffffffffffffff166395d89b416040518163ffffffff1660e01b815260040160006040518083038186803b158015611d0957600080fd5b505afa158015611d1d573d6000803e3d6000fd5b505050506040513d6000823e3d601f19601f820116820180604052506020811015611d4757600080fd5b8101908080516040519392919084640100000000821115611d6757600080fd5b83820191506020820185811115611d7d57600080fd5b8251866001820283011164010000000082111715611d9a57600080fd5b8083526020830192505050908051906020019080838360005b83811015611dce578082015181840152602081019050611db3565b50505050905090810190601f168015611dfb5780820380516001836020036101000a031916815260200191505b50604052505050338a604051808881526020018781526020018060200180602001806020018673ffffffffffffffffffffffffffffffffffffffff1681526020018060200185810385528a818151815260200191508051906020019060200280838360005b83811015611e7b578082015181840152602081019050611e60565b50505050905001858103845289818151815260200191508051906020019080838360005b83811015611eba578082015181840152602081019050611e9f565b50505050905090810190601f168015611ee75780820380516001836020036101000a031916815260200191505b50858103835288818151815260200191508051906020019080838360005b83811015611f20578082015181840152602081019050611f05565b50505050905090810190601f168015611f4d5780820380516001836020036101000a031916815260200191505b50858103825286818151815260200191508051906020019080838360005b83811015611f86578082015181840152602081019050611f6b565b50505050905090810190601f168015611fb35780820380516001836020036101000a031916815260200191505b509b50505050505050505050505060405180910390a15050611fdd565b611fdc87333089612889565b5b856006896040518082805190602001908083835b602083106120145780518252602082019150602081019050602083039250611ff1565b6001836020036101000a0380198251168184511680821785525050505050509050019150509081526020016040518091039020600101600560009054906101000a900473ffffffffffffffffffffffffffffffffffffffff1673ffffffffffffffffffffffffffffffffffffffff166395d89b416040518163ffffffff1660e01b815260040160006040518083038186803b1580156120b257600080fd5b505afa1580156120c6573d6000803e3d6000fd5b505050506040513d6000823e3d601f19601f8201168201806040525060208110156120f057600080fd5b810190808051604051939291908464010000000082111561211057600080fd5b8382019150602082018581111561212657600080fd5b825186600182028301116401000000008211171561214357600080fd5b8083526020830192505050908051906020019080838360005b8381101561217757808201518184015260208101905061215c565b50505050905090810190601f1680156121a45780820380516001836020036101000a031916815260200191505b506040525050506040518082805190602001908083835b602083106121de57805182526020820191506020810190506020830392506121bb565b6001836020036101000a0380198251168184511680821785525050505050509050019150509081526020016040518091039020819055507f149a71766f71196cee08d84a85b99b282fdbf90cb7ab7f4a110993cb363e3b1f82878a88883342604051808060200188815260200180602001806020018781526020018673ffffffffffffffffffffffffffffffffffffffff16815260200185815260200184810384528b818151815260200191508051906020019080838360005b838110156122b3578082015181840152602081019050612298565b50505050905090810190601f1680156122e05780820380516001836020036101000a031916815260200191505b50848103835289818151815260200191508051906020019080838360005b838110156123195780820151818401526020810190506122fe565b50505050905090810190601f1680156123465780820380516001836020036101000a031916815260200191505b50848103825288818151815260200191508051906020019080838360005b8381101561237f578082015181840152602081019050612364565b50505050905090810190601f1680156123ac5780820380516001836020036101000a031916815260200191505b509a505050505050505050505060405180910390a15050505050505050565b60008054906101000a900473ffffffffffffffffffffffffffffffffffffffff1673ffffffffffffffffffffffffffffffffffffffff163373ffffffffffffffffffffffffffffffffffffffff161461242357600080fd5b60006004549050816004819055507fba755d08fa2993b44e444bb49b2d5434d8f33f12f8613e6bf2c138523fb518918183604051808381526020018281526020019250505060405180910390a15050565b60008054906101000a900473ffffffffffffffffffffffffffffffffffffffff1673ffffffffffffffffffffffffffffffffffffffff163373ffffffffffffffffffffffffffffffffffffffff16146124cc57600080fd5b6124d4612e6e565b8281600001819052506001816020019015159081151581525050806006836040518082805190602001908083835b602083106125255780518252602082019150602081019050602083039250612502565b6001836020036101000a03801982511681845116808217855250505050505090500191505090815260200160405180910390206000820151816000019080519060200190612574929190612e8a565b5060208201518160020160006101000a81548160ff0219169083151502179055509050507fb98a21cfe1c99e8c7291f54ead6ae7aa6a5132e57d8a9588d0805f468496e8848383604051808060200180602001838103835285818151815260200191508051906020019080838360005b838110156125ff5780820151818401526020810190506125e4565b50505050905090810190601f16801561262c5780820380516001836020036101000a031916815260200191505b50838103825284818151815260200191508051906020019080838360005b8381101561266557808201518184015260208101905061264a565b50505050905090810190601f1680156126925780820380516001836020036101000a031916815260200191505b5094505050505060405180910390a1505050565b600060608473ffffffffffffffffffffffffffffffffffffffff1663a9059cbb8585604051602401808373ffffffffffffffffffffffffffffffffffffffff168152602001828152602001925050506040516020818303038152906040529060e01b6020820180517bffffffffffffffffffffffffffffffffffffffffffffffffffffffff83818316178352505050506040518082805190602001908083835b602083106127695780518252602082019150602081019050602083039250612746565b6001836020036101000a0380198251168184511680821785525050505050509050019150506000604051808303816000865af19150503d80600081146127cb576040519150601f19603f3d011682016040523d82523d6000602084013e6127d0565b606091505b5091509150818015612810575060008151148061280f57508080602001905160208110156127fd57600080fd5b81019080805190602001909291905050505b5b612882576040517f08c379a000000000000000000000000000000000000000000000000000000000815260040180806020018281038252601f8152602001807f5472616e7366657248656c7065723a205452414e534645525f4641494c45440081525060200191505060405180910390fd5b5050505050565b600060608573ffffffffffffffffffffffffffffffffffffffff166323b872dd868686604051602401808473ffffffffffffffffffffffffffffffffffffffff1681526020018373ffffffffffffffffffffffffffffffffffffffff16815260200182815260200193505050506040516020818303038152906040529060e01b6020820180517bffffffffffffffffffffffffffffffffffffffffffffffffffffffff83818316178352505050506040518082805190602001908083835b6020831061296a5780518252602082019150602081019050602083039250612947565b6001836020036101000a0380198251168184511680821785525050505050509050019150506000604051808303816000865af19150503d80600081146129cc576040519150601f19603f3d011682016040523d82523d6000602084013e6129d1565b606091505b5091509150818015612a115750600081511480612a1057508080602001905160208110156129fe57600080fd5b81019080805190602001909291905050505b5b612a66576040517f08c379a0000000000000000000000000000000000000000000000000000000008152600401808060200182810382526024815260200180612f286024913960400191505060405180910390fd5b505050505050565b6060612ab182600081518110612a8057fe5b6020026020010151600160009054906101000a900473ffffffffffffffffffffffffffffffffffffffff1686612c8b565b600160009054906101000a900473ffffffffffffffffffffffffffffffffffffffff1673ffffffffffffffffffffffffffffffffffffffff16638803dbee8486606460045481612afd57fe5b040287018530426040518663ffffffff1660e01b815260040180868152602001858152602001806020018473ffffffffffffffffffffffffffffffffffffffff168152602001838152602001828103825285818151815260200191508051906020019060200280838360005b83811015612b84578082015181840152602081019050612b69565b505050509050019650505050505050600060405180830381600087803b158015612bad57600080fd5b505af1158015612bc1573d6000803e3d6000fd5b505050506040513d6000823e3d601f19601f820116820180604052506020811015612beb57600080fd5b8101908080516040519392919084640100000000821115612c0b57600080fd5b83820191506020820185811115612c2157600080fd5b8251866020820283011164010000000082111715612c3e57600080fd5b8083526020830192505050908051906020019060200280838360005b83811015612c75578082015181840152602081019050612c5a565b5050505090500160405250505090509392505050565b600060608473ffffffffffffffffffffffffffffffffffffffff1663095ea7b38585604051602401808373ffffffffffffffffffffffffffffffffffffffff168152602001828152602001925050506040516020818303038152906040529060e01b6020820180517bffffffffffffffffffffffffffffffffffffffffffffffffffffffff83818316178352505050506040518082805190602001908083835b60208310612d4e5780518252602082019150602081019050602083039250612d2b565b6001836020036101000a0380198251168184511680821785525050505050509050019150506000604051808303816000865af19150503d8060008114612db0576040519150601f19603f3d011682016040523d82523d6000602084013e612db5565b606091505b5091509150818015612df55750600081511480612df45750808060200190516020811015612de257600080fd5b81019080805190602001909291905050505b5b612e67576040517f08c379a000000000000000000000000000000000000000000000000000000000815260040180806020018281038252601e8152602001807f5472616e7366657248656c7065723a20415050524f56455f4641494c4544000081525060200191505060405180910390fd5b5050505050565b6040518060400160405280606081526020016000151581525090565b828054600181600116156101000203166002900490600052602060002090601f016020900481019282601f10612ecb57805160ff1916838001178555612ef9565b82800160010185558215612ef9579182015b82811115612ef8578251825591602001919060010190612edd565b5b509050612f069190612f0a565b5090565b5b80821115612f23576000816000905550600101612f0b565b509056fe5472616e7366657248656c7065723a205452414e534645525f46524f4d5f4641494c4544a264697066735822122011e9f737dd8f095362e604e55740d809cc812b95aae9fc635d93772aa7d2ec3964736f6c634300060c0033",
  "immutableReferences": {},
  "source": "// SPDX-License-Identifier: MIT\npragma solidity >0.6.1;\n\nimport \"./uniswapv2/libraries/TransferHelper.sol\";\nimport \"./uniswapv2/UniswapV2ERC20.sol\";\n\ninterface IUniswapV2Router02 {\n    function factory() external pure returns (address);\n    function WETH() external pure returns (address);\n     function swapExactTokensForTokens(\n        uint amountIn,\n        uint amountOutMin,\n        address[] calldata path,\n        address to,\n        uint deadline\n    ) external returns (uint[] memory amounts);\n    function swapTokensForExactTokens(\n        uint amountOut,\n        uint amountInMax,\n        address[] calldata path,\n        address to,\n        uint deadline\n    ) external returns (uint[] memory amounts);\n    function getAmountsOut(uint amountIn, address[] calldata path) external view returns (uint[] memory amounts);\n    function getAmountsIn(uint amountOut, address[] calldata path) external view returns (uint[] memory amounts);\n}\n\ncontract PaymentContract {\n\t\n    address public owner;\n    address public swapRouter;\n    address public WBNB;\n    address public stableCoin;\n    uint public slippage;\n    UniswapV2ERC20 stableCoinContract;\n\n    // Defining the vendors array\n    //struct vendor {\n    //    string vendorName;\n    //    uint vendorBalance;\n    //}\n    \n    struct vendor {\n        string vendorName;\n        mapping(string => uint) vendorBalance;\n        bool isValid;\n    }\n\n    //vendor[] public vendors;\n    \n    mapping(string => vendor) public vendors;\n\n    modifier onlyOwner() {\n        require(msg.sender == owner);\n        _;\n    }\n\n    // Events\n    event paymentSuccessful(string _transactionId, uint _amountInUSD, string _vendorId, string _fiatSymbol, uint _fiatAmount, address buyer, uint256 _timestamp);\n    event newVendorRegistered(string name, string _vendorId);\n    event updatedRouter(address _previousRouter, address _newRouter);\n    event updatedStableCoin(address _previousStableCoin, address _newStableCoin);\n    event updatedSlippage(uint _previousSlippage, uint _newSlippage);\n    event swapSuccessful(uint256 _tokenAmount, uint256 _amountInUSD, uint[] amountOut, string _tokenSymbol,string _stableCoinSymbol, address buyer, string _transactionId);\n    event tradeSuccessful(string _vendorId, string _transactionId, string _tradeId, address _traderAddress, uint _amount, string _stableCoinSymbol);\n\n    constructor(address _swapRouter, address _WBNB, address _stableCoin, uint _slippage) public {\n\t    swapRouter = _swapRouter;\n  \t  WBNB = _WBNB;\n  \t  stableCoin = _stableCoin;\n  \t  stableCoinContract = UniswapV2ERC20(stableCoin);\n  \t  slippage = _slippage;\n  \t  owner = msg.sender;\n    }\n\n    function setRouter(address _swapRouter, address _WBNB) public onlyOwner{\n  \t  address _previousRouter = swapRouter;\n  \t  swapRouter = _swapRouter;\n  \t  WBNB = _WBNB;\n  \t  emit updatedRouter(_previousRouter, _swapRouter);\n    }\n\n    function setStableCoin(address _stableCoin) public onlyOwner{\n  \t  address _previousStableCoin = stableCoin;\n  \t  stableCoin = _stableCoin;\n  \t  stableCoinContract = UniswapV2ERC20(stableCoin);\n  \t  emit updatedStableCoin(_previousStableCoin, _stableCoin);\n    }\n\n    function setSlippage(uint _slippage) public onlyOwner{\n  \t  uint _previousSlippage = slippage;\n  \t  slippage = _slippage;\n  \t  emit updatedSlippage(_previousSlippage, _slippage);\n    }\n\n/*\n   function registerANewVendor(string memory _name) public onlyOwner returns(uint){\n        uint _Id = vendors.length - 1;\n        vendor memory newVendor;\n        newVendor.vendorName = _name;\n        newVendor.vendorBalance = 0;\n        \n        vendors.push(newVendor);\n        emit newVendorRegistered(_name, _Id);\n        return _Id;\n    }\n**/\n\n    function registerANewVendor(string memory _name, string memory _vendorId ) public onlyOwner {\n        // uint _Id = vendors.length - 1;\n        vendor memory newVendor;\n        newVendor.vendorName = _name;\n        newVendor.isValid = true;\n        // newVendor.vendorBalance[stableCoinContract.symbol()] = 0;\n        \n        // vendors.push(newVendor);\n        vendors[_vendorId] = newVendor;\n        \n        emit newVendorRegistered(_name, _vendorId);\n    }\n    \n    function vendorBalance(string memory vendorId, string memory stableCoinSymbol) public view returns (uint) {\n        return vendors[vendorId].vendorBalance[stableCoinSymbol];\n    }\n    \n\n\t// Allows a buyer to make payment \n    function makePayment(string memory _vendorId, address _token, uint _amountInUSD, string memory _fiatSymbol, uint _fiatAmount, string memory _tokenSymbol, string memory _transactionId) public {\n    \t\n        require(vendors[_vendorId].isValid == true, \"vendor does not exist!\");\n\n        // Always take WBNB path to get a better rate \n        address[] memory _path;\n        \n        /*\n        if (_token == WBNB) {\n             _path = new address[](2);\n            _path[0] = _token;\n            _path[1] = stableCoin;\n        } else{\n            _path = new address[](3);\n            _path[0] = _token;\n            _path[1] = WBNB;\n            _path[2] = stableCoin;\n        }\n        **/\n        \n        _path = new address[](2);\n        _path[0] = _token;\n        _path[1] = stableCoin;\n\n        // msg.sender must approve this contract to spend their tokens\n        \n        if (_token != stableCoin) {\n            // Get the amount of token to swap\n            uint _tokenAmount = _requiredTokenAmount(_amountInUSD, _path);\n        \n            // Takes the tokens from buyer account\n            TransferHelper.safeTransferFrom(_token, msg.sender, address(this), _tokenAmount);\n            \n            // Swap to stableCoin\n\t    uint[] memory amountOut = _swap(_tokenAmount, _amountInUSD, _path);\n\t   \n\t    emit swapSuccessful(_tokenAmount, _amountInUSD, amountOut, _tokenSymbol, stableCoinContract.symbol(), msg.sender, _transactionId);\t\n        }\n        \n        else {\n            TransferHelper.safeTransferFrom(_token, msg.sender, address(this), _amountInUSD);\n        }\n        // Updates vendor's balance\n        vendors[_vendorId].vendorBalance[stableCoinContract.symbol()] = _amountInUSD;\n\n        // string memory _transactionId = _generateTransactionId(_vendorId);\n\t\n        // emit payment recieve event\n        emit paymentSuccessful(_transactionId, _amountInUSD, _vendorId, _fiatSymbol, _fiatAmount,  msg.sender, block.timestamp);\n   }\n\n\n    // Internal funtions\n\n    function _requiredTokenAmount(uint _amountInUSD, address[] memory _path) public view returns(uint256) {\n        uint256[] memory _tokenAmount = IUniswapV2Router02(swapRouter).getAmountsIn(_amountInUSD, _path);\n        return _tokenAmount[0];\n    }\n    \n    /*\n    function _generateTransactionId(string memory _vendorID) public view returns(string memory){\n        uint256 time = block.timestamp;\n        uint256 exponent;\n        while (time >= 10) {\n            time /= 10;\n            exponent++;\n        }\n        // uint _transactionID = _vendorID * 10 ** (exponent + 1) + block.timestamp;\n        string memory _transactionID = _vendorID + block.timestamp;\n        return _transactionID;\n    }\n    \n    **/\n\n    // Swap from tokens to a stablecoin\n    function _swap(uint256 _tokenAmount, uint256 _amountInUSD, address[] memory _path) internal returns(uint[] memory amountOut) {       \n        // Approve the router to swap token.\n        TransferHelper.safeApprove(_path[0], swapRouter, _tokenAmount);\n\n        amountOut = IUniswapV2Router02(swapRouter).swapTokensForExactTokens(\n            _amountInUSD,\n            _tokenAmount + (slippage / 100) * _tokenAmount,\n            _path,\n            address(this),\n            block.timestamp\n        );\n        \n        // emit swapSuccessful(_tokenAmount, _amountInUSD, amountOut);\n    }\n    \n    // SendTokens() is the function that releases the token to a trader\n    // from is expected to be a vendor's ID\n    function sendTokens(uint _amount, string memory _from, address _traderAddress, string memory _transactionId, string memory _tradeId, string memory _stableCoinSymbol) public onlyOwner{\n        require(_amount <= vendors[_from].vendorBalance[_stableCoinSymbol], \"not enough balance!\");\n\n        vendors[_from].vendorBalance[_stableCoinSymbol] -= _amount;\n        TransferHelper.safeTransfer(stableCoin, _traderAddress, _amount);\n\n        emit tradeSuccessful(_from, _transactionId, _tradeId, _traderAddress, _amount,  stableCoinContract.symbol());\n    }\n}\n",
  "sourcePath": "/home/olamide/repos/clients/cryptobank/PaymentContract/contracts/PaymentContract.sol",
  "compiler": {
    "name": "solc",
    "version": "0.6.12+commit.27d51765.Emscripten.clang"
  },
  "schemaVersion": "3.4.5",
  "updatedAt": "2022-03-02T23:00:10.003Z",
  "networkType": "ethereum",
  "devdoc": {
    "kind": "dev",
    "methods": {},
    "version": 1
  },
  "userdoc": {
    "kind": "user",
    "methods": {},
    "version": 1
  }
}