{
  "contractName": "PaymentContract",
  "abi": [
    {
      "inputs": [
        {
          "internalType": "address",
          "name": "_swapRouter",
          "type": "address"
        },
        {
          "internalType": "address",
          "name": "_WBNB",
          "type": "address"
        },
        {
          "internalType": "string",
          "name": "_stableCoinSymbol",
          "type": "string"
        },
        {
          "internalType": "address",
          "name": "_stableCoinAddress",
          "type": "address"
        },
        {
          "internalType": "uint256",
          "name": "_slippage",
          "type": "uint256"
        }
      ],
      "stateMutability": "nonpayable",
      "type": "constructor"
    },
    {
      "anonymous": false,
      "inputs": [
        {
          "indexed": false,
          "internalType": "string",
          "name": "_newStableCoinSymbol",
          "type": "string"
        },
        {
          "indexed": false,
          "internalType": "address",
          "name": "_newStableCoinAddress",
          "type": "address"
        }
      ],
      "name": "addedStableCoin",
      "type": "event"
    },
    {
      "anonymous": false,
      "inputs": [
        {
          "indexed": false,
          "internalType": "string",
          "name": "_stableCoinSymbol",
          "type": "string"
        },
        {
          "indexed": false,
          "internalType": "address",
          "name": "_stableCoinAddress",
          "type": "address"
        }
      ],
      "name": "disabledStableCoin",
      "type": "event"
    },
    {
      "anonymous": false,
      "inputs": [
        {
          "indexed": false,
          "internalType": "string",
          "name": "_stableCoinSymbol",
          "type": "string"
        },
        {
          "indexed": false,
          "internalType": "address",
          "name": "_stableCoinAddress",
          "type": "address"
        }
      ],
      "name": "enabledStableCoin",
      "type": "event"
    },
    {
      "anonymous": false,
      "inputs": [
        {
          "indexed": false,
          "internalType": "string",
          "name": "name",
          "type": "string"
        },
        {
          "indexed": false,
          "internalType": "string",
          "name": "_vendorId",
          "type": "string"
        }
      ],
      "name": "newVendorRegistered",
      "type": "event"
    },
    {
      "anonymous": false,
      "inputs": [
        {
          "indexed": false,
          "internalType": "address",
          "name": "_previousOwner",
          "type": "address"
        },
        {
          "indexed": false,
          "internalType": "address",
          "name": "_newOwner",
          "type": "address"
        },
        {
          "indexed": false,
          "internalType": "uint256",
          "name": "_timestamp",
          "type": "uint256"
        }
      ],
      "name": "ownershipTransferred",
      "type": "event"
    },
    {
      "anonymous": false,
      "inputs": [
        {
          "indexed": false,
          "internalType": "string",
          "name": "_transactionId",
          "type": "string"
        },
        {
          "indexed": false,
          "internalType": "uint256",
          "name": "_amountInUSD",
          "type": "uint256"
        },
        {
          "indexed": false,
          "internalType": "string",
          "name": "_vendorId",
          "type": "string"
        },
        {
          "indexed": false,
          "internalType": "string",
          "name": "_fiatSymbol",
          "type": "string"
        },
        {
          "indexed": false,
          "internalType": "uint256",
          "name": "_fiatAmount",
          "type": "uint256"
        },
        {
          "indexed": false,
          "internalType": "address",
          "name": "buyer",
          "type": "address"
        },
        {
          "indexed": false,
          "internalType": "uint256",
          "name": "_timestamp",
          "type": "uint256"
        }
      ],
      "name": "paymentSuccessful",
      "type": "event"
    },
    {
      "anonymous": false,
      "inputs": [
        {
          "indexed": false,
          "internalType": "address",
          "name": "_previousStableCoinAddress",
          "type": "address"
        },
        {
          "indexed": false,
          "internalType": "address",
          "name": "_newStableCoinAddress",
          "type": "address"
        },
        {
          "indexed": false,
          "internalType": "string",
          "name": "_newStableCoinSymbol",
          "type": "string"
        }
      ],
      "name": "stableCoinDefaultSet",
      "type": "event"
    },
    {
      "anonymous": false,
      "inputs": [
        {
          "indexed": false,
          "internalType": "uint256",
          "name": "_tokenAmount",
          "type": "uint256"
        },
        {
          "indexed": false,
          "internalType": "uint256",
          "name": "_amountInUSD",
          "type": "uint256"
        },
        {
          "indexed": false,
          "internalType": "uint256[]",
          "name": "amountOut",
          "type": "uint256[]"
        },
        {
          "indexed": false,
          "internalType": "string",
          "name": "_tokenSymbol",
          "type": "string"
        },
        {
          "indexed": false,
          "internalType": "string",
          "name": "_stableCoinSymbol",
          "type": "string"
        },
        {
          "indexed": false,
          "internalType": "address",
          "name": "buyer",
          "type": "address"
        },
        {
          "indexed": false,
          "internalType": "string",
          "name": "_transactionId",
          "type": "string"
        }
      ],
      "name": "swapSuccessful",
      "type": "event"
    },
    {
      "anonymous": false,
      "inputs": [
        {
          "indexed": false,
          "internalType": "string",
          "name": "_vendorId",
          "type": "string"
        },
        {
          "indexed": false,
          "internalType": "string",
          "name": "_transactionId",
          "type": "string"
        },
        {
          "indexed": false,
          "internalType": "string",
          "name": "_tradeId",
          "type": "string"
        },
        {
          "indexed": false,
          "internalType": "address",
          "name": "_traderAddress",
          "type": "address"
        },
        {
          "indexed": false,
          "internalType": "uint256",
          "name": "_amount",
          "type": "uint256"
        },
        {
          "indexed": false,
          "internalType": "string",
          "name": "_stableCoinSymbol",
          "type": "string"
        },
        {
          "indexed": false,
          "internalType": "string",
          "name": "_traderEmail",
          "type": "string"
        },
        {
          "indexed": false,
          "internalType": "uint256",
          "name": "_tradePrice",
          "type": "uint256"
        },
        {
          "indexed": false,
          "internalType": "uint256",
          "name": "_timestamp",
          "type": "uint256"
        }
      ],
      "name": "tradeSuccessful",
      "type": "event"
    },
    {
      "anonymous": false,
      "inputs": [
        {
          "indexed": false,
          "internalType": "string",
          "name": "_unregisteredStableCoinSymbol",
          "type": "string"
        },
        {
          "indexed": false,
          "internalType": "address",
          "name": "_defaultStableCoinAddress",
          "type": "address"
        }
      ],
      "name": "unregisteredStableCoin",
      "type": "event"
    },
    {
      "anonymous": false,
      "inputs": [
        {
          "indexed": false,
          "internalType": "address",
          "name": "_previousRouter",
          "type": "address"
        },
        {
          "indexed": false,
          "internalType": "address",
          "name": "_newRouter",
          "type": "address"
        }
      ],
      "name": "updatedRouter",
      "type": "event"
    },
    {
      "anonymous": false,
      "inputs": [
        {
          "indexed": false,
          "internalType": "uint256",
          "name": "_previousSlippage",
          "type": "uint256"
        },
        {
          "indexed": false,
          "internalType": "uint256",
          "name": "_newSlippage",
          "type": "uint256"
        }
      ],
      "name": "updatedSlippage",
      "type": "event"
    },
    {
      "inputs": [],
      "name": "WBNB",
      "outputs": [
        {
          "internalType": "address",
          "name": "",
          "type": "address"
        }
      ],
      "stateMutability": "view",
      "type": "function",
      "constant": true
    },
    {
      "inputs": [],
      "name": "owner",
      "outputs": [
        {
          "internalType": "address",
          "name": "",
          "type": "address"
        }
      ],
      "stateMutability": "view",
      "type": "function",
      "constant": true
    },
    {
      "inputs": [],
      "name": "slippage",
      "outputs": [
        {
          "internalType": "uint256",
          "name": "",
          "type": "uint256"
        }
      ],
      "stateMutability": "view",
      "type": "function",
      "constant": true
    },
    {
      "inputs": [
        {
          "internalType": "string",
          "name": "",
          "type": "string"
        }
      ],
      "name": "stableCoinAddresses",
      "outputs": [
        {
          "internalType": "address",
          "name": "",
          "type": "address"
        }
      ],
      "stateMutability": "view",
      "type": "function",
      "constant": true
    },
    {
      "inputs": [],
      "name": "stableCoinDefault",
      "outputs": [
        {
          "internalType": "address",
          "name": "",
          "type": "address"
        }
      ],
      "stateMutability": "view",
      "type": "function",
      "constant": true
    },
    {
      "inputs": [],
      "name": "stableCoinDefaultObj",
      "outputs": [
        {
          "internalType": "string",
          "name": "symbol",
          "type": "string"
        },
        {
          "internalType": "bool",
          "name": "isActive",
          "type": "bool"
        },
        {
          "internalType": "bool",
          "name": "isDefault",
          "type": "bool"
        },
        {
          "internalType": "address",
          "name": "stableCoinAddress",
          "type": "address"
        },
        {
          "internalType": "uint256",
          "name": "ratio",
          "type": "uint256"
        },
        {
          "internalType": "bool",
          "name": "initialized",
          "type": "bool"
        }
      ],
      "stateMutability": "view",
      "type": "function",
      "constant": true
    },
    {
      "inputs": [
        {
          "internalType": "string",
          "name": "",
          "type": "string"
        }
      ],
      "name": "stableCoins",
      "outputs": [
        {
          "internalType": "string",
          "name": "symbol",
          "type": "string"
        },
        {
          "internalType": "bool",
          "name": "isActive",
          "type": "bool"
        },
        {
          "internalType": "bool",
          "name": "isDefault",
          "type": "bool"
        },
        {
          "internalType": "address",
          "name": "stableCoinAddress",
          "type": "address"
        },
        {
          "internalType": "uint256",
          "name": "ratio",
          "type": "uint256"
        },
        {
          "internalType": "bool",
          "name": "initialized",
          "type": "bool"
        }
      ],
      "stateMutability": "view",
      "type": "function",
      "constant": true
    },
    {
      "inputs": [
        {
          "internalType": "uint256",
          "name": "",
          "type": "uint256"
        }
      ],
      "name": "stableCoinsList",
      "outputs": [
        {
          "internalType": "string",
          "name": "",
          "type": "string"
        }
      ],
      "stateMutability": "view",
      "type": "function",
      "constant": true
    },
    {
      "inputs": [],
      "name": "swapRouter",
      "outputs": [
        {
          "internalType": "address",
          "name": "",
          "type": "address"
        }
      ],
      "stateMutability": "view",
      "type": "function",
      "constant": true
    },
    {
      "inputs": [
        {
          "internalType": "string",
          "name": "",
          "type": "string"
        }
      ],
      "name": "vendors",
      "outputs": [
        {
          "internalType": "string",
          "name": "vendorName",
          "type": "string"
        },
        {
          "internalType": "bool",
          "name": "isValid",
          "type": "bool"
        }
      ],
      "stateMutability": "view",
      "type": "function",
      "constant": true
    },
    {
      "inputs": [],
      "name": "getStableCoinsList",
      "outputs": [
        {
          "internalType": "string[]",
          "name": "",
          "type": "string[]"
        }
      ],
      "stateMutability": "view",
      "type": "function",
      "constant": true
    },
    {
      "inputs": [
        {
          "internalType": "address",
          "name": "_swapRouter",
          "type": "address"
        },
        {
          "internalType": "address",
          "name": "_WBNB",
          "type": "address"
        }
      ],
      "name": "setRouter",
      "outputs": [],
      "stateMutability": "nonpayable",
      "type": "function"
    },
    {
      "inputs": [
        {
          "internalType": "string",
          "name": "_stableCoinSymbol",
          "type": "string"
        }
      ],
      "name": "setStableCoinDefault",
      "outputs": [],
      "stateMutability": "nonpayable",
      "type": "function"
    },
    {
      "inputs": [
        {
          "internalType": "uint256",
          "name": "_slippage",
          "type": "uint256"
        }
      ],
      "name": "setSlippage",
      "outputs": [],
      "stateMutability": "nonpayable",
      "type": "function"
    },
    {
      "inputs": [
        {
          "internalType": "string",
          "name": "_name",
          "type": "string"
        },
        {
          "internalType": "string",
          "name": "_vendorId",
          "type": "string"
        }
      ],
      "name": "registerANewVendor",
      "outputs": [],
      "stateMutability": "nonpayable",
      "type": "function"
    },
    {
      "inputs": [
        {
          "internalType": "string",
          "name": "vendorId",
          "type": "string"
        },
        {
          "internalType": "string",
          "name": "stableCoinSymbol",
          "type": "string"
        }
      ],
      "name": "vendorBalance",
      "outputs": [
        {
          "internalType": "uint256",
          "name": "",
          "type": "uint256"
        }
      ],
      "stateMutability": "view",
      "type": "function",
      "constant": true
    },
    {
      "inputs": [
        {
          "internalType": "string",
          "name": "_vendorId",
          "type": "string"
        },
        {
          "internalType": "address",
          "name": "_token",
          "type": "address"
        },
        {
          "internalType": "uint256",
          "name": "_amountInUSD",
          "type": "uint256"
        },
        {
          "internalType": "string",
          "name": "_fiatSymbol",
          "type": "string"
        },
        {
          "internalType": "uint256",
          "name": "_fiatAmount",
          "type": "uint256"
        },
        {
          "internalType": "string",
          "name": "_tokenSymbol",
          "type": "string"
        },
        {
          "internalType": "string",
          "name": "_transactionId",
          "type": "string"
        },
        {
          "internalType": "string",
          "name": "_stableCoinSymbol",
          "type": "string"
        }
      ],
      "name": "makePayment",
      "outputs": [],
      "stateMutability": "nonpayable",
      "type": "function"
    },
    {
      "inputs": [
        {
          "internalType": "uint256",
          "name": "_amountInUSD",
          "type": "uint256"
        },
        {
          "internalType": "address[]",
          "name": "_path",
          "type": "address[]"
        }
      ],
      "name": "_requiredTokenAmount",
      "outputs": [
        {
          "internalType": "uint256",
          "name": "",
          "type": "uint256"
        }
      ],
      "stateMutability": "view",
      "type": "function",
      "constant": true
    },
    {
      "inputs": [
        {
          "internalType": "uint256",
          "name": "_amount",
          "type": "uint256"
        },
        {
          "internalType": "string",
          "name": "_from",
          "type": "string"
        },
        {
          "internalType": "address",
          "name": "_traderAddress",
          "type": "address"
        },
        {
          "internalType": "string",
          "name": "_transactionId",
          "type": "string"
        },
        {
          "internalType": "string",
          "name": "_tradeId",
          "type": "string"
        },
        {
          "internalType": "string",
          "name": "_stableCoinSymbol",
          "type": "string"
        },
        {
          "internalType": "string",
          "name": "_traderEmail",
          "type": "string"
        },
        {
          "internalType": "uint256",
          "name": "_tradePrice",
          "type": "uint256"
        }
      ],
      "name": "sendTokens",
      "outputs": [],
      "stateMutability": "nonpayable",
      "type": "function"
    },
    {
      "inputs": [
        {
          "internalType": "string",
          "name": "_stableCoinSymbol",
          "type": "string"
        },
        {
          "internalType": "address",
          "name": "_stableCoinAddress",
          "type": "address"
        }
      ],
      "name": "addStableCoin",
      "outputs": [],
      "stateMutability": "nonpayable",
      "type": "function"
    },
    {
      "inputs": [
        {
          "internalType": "string",
          "name": "_stableCoinSymbol",
          "type": "string"
        }
      ],
      "name": "disableStableCoin",
      "outputs": [],
      "stateMutability": "nonpayable",
      "type": "function"
    },
    {
      "inputs": [
        {
          "internalType": "string",
          "name": "_stableCoinSymbol",
          "type": "string"
        }
      ],
      "name": "enableStableCoin",
      "outputs": [],
      "stateMutability": "nonpayable",
      "type": "function"
    },
    {
      "inputs": [
        {
          "internalType": "string",
          "name": "_vendorId",
          "type": "string"
        },
        {
          "internalType": "string",
          "name": "_stableCoinSymbol",
          "type": "string"
        }
      ],
      "name": "vendorBalanceFor",
      "outputs": [
        {
          "internalType": "uint256",
          "name": "",
          "type": "uint256"
        }
      ],
      "stateMutability": "view",
      "type": "function",
      "constant": true
    },
    {
      "inputs": [
        {
          "internalType": "string",
          "name": "_vendorId",
          "type": "string"
        }
      ],
      "name": "totalVendorBalance",
      "outputs": [
        {
          "internalType": "uint256",
          "name": "",
          "type": "uint256"
        }
      ],
      "stateMutability": "view",
      "type": "function",
      "constant": true
    },
    {
      "inputs": [
        {
          "internalType": "address",
          "name": "_newOwner",
          "type": "address"
        }
      ],
      "name": "transferOwnershipTo",
      "outputs": [],
      "stateMutability": "nonpayable",
      "type": "function"
    }
  ],
  "bytecode": "0x60806040523480156200001157600080fd5b50604051620048a0380380620048a083398181016040528101906200003791906200064e565b84600160006101000a81548173ffffffffffffffffffffffffffffffffffffffff021916908373ffffffffffffffffffffffffffffffffffffffff16021790555083600260006101000a81548173ffffffffffffffffffffffffffffffffffffffff021916908373ffffffffffffffffffffffffffffffffffffffff16021790555081600360006101000a81548173ffffffffffffffffffffffffffffffffffffffff021916908373ffffffffffffffffffffffffffffffffffffffff1602179055506040518060c001604052808481526020016001151581526020016001151581526020018373ffffffffffffffffffffffffffffffffffffffff1681526020016001815260200160011515815250600460008201518160000190805190602001906200016792919062000490565b5060208201518160010160006101000a81548160ff02191690831515021790555060408201518160010160016101000a81548160ff02191690831515021790555060608201518160010160026101000a81548173ffffffffffffffffffffffffffffffffffffffff021916908373ffffffffffffffffffffffffffffffffffffffff1602179055506080820151816002015560a08201518160030160006101000a81548160ff0219169083151502179055509050507f074a8a3d9b7f6c0c882d848484e5216b055445ba10d3fe6fb094c63762e867d56000838560405162000252939291906200079c565b60405180910390a181600a846040516200026d919062000783565b908152602001604051809103902060006101000a81548173ffffffffffffffffffffffffffffffffffffffff021916908373ffffffffffffffffffffffffffffffffffffffff160217905550600b83908060018154018082558091505060019003906000526020600020016000909190919091509080519060200190620002f692919062000490565b5060046009846040516200030b919062000783565b9081526020016040518091039020600082018160000190805460018160011615610100020316600290046200034292919062000517565b506001820160009054906101000a900460ff168160010160006101000a81548160ff0219169083151502179055506001820160019054906101000a900460ff168160010160016101000a81548160ff0219169083151502179055506001820160029054906101000a900473ffffffffffffffffffffffffffffffffffffffff168160010160026101000a81548173ffffffffffffffffffffffffffffffffffffffff021916908373ffffffffffffffffffffffffffffffffffffffff160217905550600282015481600201556003820160009054906101000a900460ff168160030160006101000a81548160ff02191690831515021790555090505080600881905550336000806101000a81548173ffffffffffffffffffffffffffffffffffffffff021916908373ffffffffffffffffffffffffffffffffffffffff160217905550505050505062000957565b828054600181600116156101000203166002900490600052602060002090601f016020900481019282601f10620004d357805160ff191683800117855562000504565b8280016001018555821562000504579182015b8281111562000503578251825591602001919060010190620004e6565b5b509050620005139190620005a5565b5090565b828054600181600116156101000203166002900490600052602060002090601f016020900481019282601f1062000552578054855562000592565b828001600101855582156200059257600052602060002091601f016020900482015b828111156200059157825482559160010191906001019062000574565b5b509050620005a19190620005a5565b5090565b5b80821115620005c0576000816000905550600101620005a6565b5090565b600081519050620005d58162000923565b92915050565b600082601f830112620005ed57600080fd5b815162000604620005fe826200080e565b620007e0565b915080825260208301602083018583830111156200062157600080fd5b6200062e838284620008dc565b50505092915050565b60008151905062000648816200093d565b92915050565b600080600080600060a086880312156200066757600080fd5b60006200067788828901620005c4565b95505060206200068a88828901620005c4565b945050604086015167ffffffffffffffff811115620006a857600080fd5b620006b688828901620005db565b9350506060620006c988828901620005c4565b9250506080620006dc8882890162000637565b9150509295509295909350565b620006f481620008a0565b82525050565b620007058162000862565b82525050565b600062000718826200083b565b62000724818562000846565b935062000736818560208601620008dc565b620007418162000912565b840191505092915050565b600062000759826200083b565b62000765818562000857565b935062000777818560208601620008dc565b80840191505092915050565b60006200079182846200074c565b915081905092915050565b6000606082019050620007b36000830186620006e9565b620007c26020830185620006fa565b8181036040830152620007d681846200070b565b9050949350505050565b6000604051905081810181811067ffffffffffffffff821117156200080457600080fd5b8060405250919050565b600067ffffffffffffffff8211156200082657600080fd5b601f19601f8301169050602081019050919050565b600081519050919050565b600082825260208201905092915050565b600081905092915050565b60006200086f8262000876565b9050919050565b600073ffffffffffffffffffffffffffffffffffffffff82169050919050565b6000819050919050565b6000620008ad82620008b4565b9050919050565b6000620008c182620008c8565b9050919050565b6000620008d58262000876565b9050919050565b60005b83811015620008fc578082015181840152602081019050620008df565b838111156200090c576000848401525b50505050565b6000601f19601f8301169050919050565b6200092e8162000862565b81146200093a57600080fd5b50565b620009488162000896565b81146200095457600080fd5b50565b613f3980620009676000396000f3fe608060405234801561001057600080fd5b50600436106101735760003560e01c80638dd95002116100de578063c1278bd711610097578063c4123eea11610071578063c4123eea1461047b578063f0fa55a914610497578063fb886ac8146104b3578063fe3b8f7c146104cf57610173565b8063c1278bd7146103f8578063c1fcde2f1461042d578063c31c9c071461045d57610173565b80638dd95002146103235780638e6ac21e1461034157806391fa0b5114610371578063a4d31c79146103a2578063b208ba70146103be578063b4d1aa88146103dc57610173565b806341d68b8f1161013057806341d68b8f1461025157806352effe111461026d57806354af24e71461028957806362d2bf4b146102b9578063761e0bc3146102d55780638da5cb5b1461030557610173565b806308b0d8de146101785780631812a614146101945780632afb7b04146101b75780632fa37382146101e75780633c78fb96146102035780633e032a3b14610233575b600080fd5b610192600480360381019061018d9190612c18565b6104ed565b005b61019c6106a7565b6040516101ae969594939291906137bf565b60405180910390f35b6101d160048036038101906101cc9190612c18565b6107b0565b6040516101de9190613af2565b60405180910390f35b61020160048036038101906101fc9190612c59565b61090c565b005b61021d60048036038101906102189190612c18565b610bac565b60405161022a9190613639565b60405180910390f35b61023b610bf5565b6040516102489190613af2565b60405180910390f35b61026b60048036038101906102669190612b72565b610bfb565b005b61028760048036038101906102829190612b49565b610d70565b005b6102a3600480360381019061029e9190612dd7565b610ec3565b6040516102b09190613af2565b60405180910390f35b6102d360048036038101906102ce9190612cad565b610f80565b005b6102ef60048036038101906102ea9190612e6c565b61136a565b6040516102fc9190613af2565b60405180910390f35b61030d611440565b60405161031a9190613639565b60405180910390f35b61032b611464565b6040516103389190613639565b60405180910390f35b61035b60048036038101906103569190612dd7565b61148a565b6040516103689190613af2565b60405180910390f35b61038b60048036038101906103869190612c18565b61154d565b60405161039992919061378f565b60405180910390f35b6103bc60048036038101906103b79190612c18565b61162c565b005b6103c66119b8565b6040516103d3919061371b565b60405180910390f35b6103f660048036038101906103f19190612ec0565b611aa1565b005b610412600480360381019061040d9190612c18565b611d87565b604051610424969594939291906137bf565b60405180910390f35b61044760048036038101906104429190612e43565b611eb8565b604051610454919061373d565b60405180910390f35b610465611f71565b6040516104729190613639565b60405180910390f35b61049560048036038101906104909190612c18565b611f97565b005b6104b160048036038101906104ac9190612e43565b612151565b005b6104cd60048036038101906104c89190612dd7565b61222a565b005b6104d7612377565b6040516104e49190613639565b60405180910390f35b60008054906101000a900473ffffffffffffffffffffffffffffffffffffffff1673ffffffffffffffffffffffffffffffffffffffff163373ffffffffffffffffffffffffffffffffffffffff161461057b576040517f08c379a0000000000000000000000000000000000000000000000000000000008152600401610572906139d2565b60405180910390fd5b6000151560098260405161058f9190613622565b908152602001604051809103902060010160019054906101000a900460ff161515146105f0576040517f08c379a00000000000000000000000000000000000000000000000000000000081526004016105e790613a52565b60405180910390fd5b60016009826040516106029190613622565b908152602001604051809103902060010160006101000a81548160ff0219169083151502179055507fe74cfd227994e892296a459070db4b316bd33a3de1cf313d4abbb3d936f52f758160098360405161065c9190613622565b908152602001604051809103902060010160029054906101000a900473ffffffffffffffffffffffffffffffffffffffff1660405161069c92919061375f565b60405180910390a150565b6004806000018054600181600116156101000203166002900480601f0160208091040260200160405190810160405280929190818152602001828054600181600116156101000203166002900480156107415780601f1061071657610100808354040283529160200191610741565b820191906000526020600020905b81548152906001019060200180831161072457829003601f168201915b5050505050908060010160009054906101000a900460ff16908060010160019054906101000a900460ff16908060010160029054906101000a900473ffffffffffffffffffffffffffffffffffffffff16908060020154908060030160009054906101000a900460ff16905086565b600060011515600c836040516107c69190613622565b908152602001604051809103902060020160009054906101000a900460ff16151514610827576040517f08c379a000000000000000000000000000000000000000000000000000000000815260040161081e90613a32565b60405180910390fd5b6000805b600b80549050811015610902576108f184600b838154811061084957fe5b906000526020600020018054600181600116156101000203166002900480601f0160208091040260200160405190810160405280929190818152602001828054600181600116156101000203166002900480156108e75780601f106108bc576101008083540402835291602001916108e7565b820191906000526020600020905b8154815290600101906020018083116108ca57829003601f168201915b505050505061148a565b82019150808060010191505061082b565b5080915050919050565b60008054906101000a900473ffffffffffffffffffffffffffffffffffffffff1673ffffffffffffffffffffffffffffffffffffffff163373ffffffffffffffffffffffffffffffffffffffff161461099a576040517f08c379a0000000000000000000000000000000000000000000000000000000008152600401610991906139d2565b60405180910390fd5b80600a836040516109ab9190613622565b908152602001604051809103902060006101000a81548173ffffffffffffffffffffffffffffffffffffffff021916908373ffffffffffffffffffffffffffffffffffffffff160217905550600b82908060018154018082558091505060019003906000526020600020016000909190919091509080519060200190610a3292919061285b565b506040518060c001604052808381526020016001151581526020016000151581526020018273ffffffffffffffffffffffffffffffffffffffff1681526020016000815260200160011515815250600983604051610a909190613622565b90815260200160405180910390206000820151816000019080519060200190610aba92919061285b565b5060208201518160010160006101000a81548160ff02191690831515021790555060408201518160010160016101000a81548160ff02191690831515021790555060608201518160010160026101000a81548173ffffffffffffffffffffffffffffffffffffffff021916908373ffffffffffffffffffffffffffffffffffffffff1602179055506080820151816002015560a08201518160030160006101000a81548160ff0219169083151502179055509050507fab0ecd0d3396f5c22656bb557135514453a4ccd4cf995aeb1239574045d589d78282604051610ba092919061375f565b60405180910390a15050565b600a818051602081018201805184825260208301602085012081835280955050505050506000915054906101000a900473ffffffffffffffffffffffffffffffffffffffff1681565b60085481565b60008054906101000a900473ffffffffffffffffffffffffffffffffffffffff1673ffffffffffffffffffffffffffffffffffffffff163373ffffffffffffffffffffffffffffffffffffffff1614610c89576040517f08c379a0000000000000000000000000000000000000000000000000000000008152600401610c80906139d2565b60405180910390fd5b6000600160009054906101000a900473ffffffffffffffffffffffffffffffffffffffff16905082600160006101000a81548173ffffffffffffffffffffffffffffffffffffffff021916908373ffffffffffffffffffffffffffffffffffffffff16021790555081600260006101000a81548173ffffffffffffffffffffffffffffffffffffffff021916908373ffffffffffffffffffffffffffffffffffffffff1602179055507feb96dbe4c4840412db0e284bfada15df144031c15a2039d8dd4724959dcbdc198184604051610d63929190613654565b60405180910390a1505050565b60008054906101000a900473ffffffffffffffffffffffffffffffffffffffff1673ffffffffffffffffffffffffffffffffffffffff163373ffffffffffffffffffffffffffffffffffffffff1614610dfe576040517f08c379a0000000000000000000000000000000000000000000000000000000008152600401610df5906139d2565b60405180910390fd5b60008060009054906101000a900473ffffffffffffffffffffffffffffffffffffffff169050816000806101000a81548173ffffffffffffffffffffffffffffffffffffffff021916908373ffffffffffffffffffffffffffffffffffffffff1602179055507f15d66d6a505275bfc0a3dce5c59ea7ac0de23829e337c3e7bd03772719f1d2818160008054906101000a900473ffffffffffffffffffffffffffffffffffffffff1642604051610eb7939291906136bb565b60405180910390a15050565b600060011515600c84604051610ed99190613622565b908152602001604051809103902060020160009054906101000a900460ff16151514610f3a576040517f08c379a0000000000000000000000000000000000000000000000000000000008152600401610f3190613a32565b60405180910390fd5b600c83604051610f4a9190613622565b908152602001604051809103902060010182604051610f699190613622565b908152602001604051809103902054905092915050565b60011515600c89604051610f949190613622565b908152602001604051809103902060020160009054906101000a900460ff16151514610ff5576040517f08c379a0000000000000000000000000000000000000000000000000000000008152600401610fec90613a32565b60405180910390fd5b6000861180156110055750600084115b611044576040517f08c379a000000000000000000000000000000000000000000000000000000000815260040161103b906139f2565b60405180910390fd5b606060006009836040516110589190613622565b908152602001604051809103902060010160009054906101000a900460ff16156110c257600a8360405161108c9190613622565b908152602001604051809103902060009054906101000a900473ffffffffffffffffffffffffffffffffffffffff169050611143565b600360009054906101000a900473ffffffffffffffffffffffffffffffffffffffff1690507f41dd4c66be8b229a90bc8808634883a940aad41329d0a5faf295fa105d689cbd83600360009054906101000a900473ffffffffffffffffffffffffffffffffffffffff1660405161113a92919061375f565b60405180910390a15b600267ffffffffffffffff8111801561115b57600080fd5b5060405190808252806020026020018201604052801561118a5781602001602082028036833780820191505090505b509150888260008151811061119b57fe5b602002602001019073ffffffffffffffffffffffffffffffffffffffff16908173ffffffffffffffffffffffffffffffffffffffff168152505080826001815181106111e357fe5b602002602001019073ffffffffffffffffffffffffffffffffffffffff16908173ffffffffffffffffffffffffffffffffffffffff16815250508073ffffffffffffffffffffffffffffffffffffffff168973ffffffffffffffffffffffffffffffffffffffff16146112c357600061125c898461136a565b905061126a8a33308461239d565b6060611277828b866124d7565b90507fa7461e6e6612d58f276443450252cd19ebc2b3393c607693672db279fdb700c0828b838a89338c6040516112b49796959493929190613bc0565b60405180910390a150506112d0565b6112cf8933308b61239d565b5b87600c8b6040516112e19190613622565b9081526020016040518091039020600101846040516113009190613622565b9081526020016040518091039020600082825401925050819055507f149a71766f71196cee08d84a85b99b282fdbf90cb7ab7f4a110993cb363e3b1f84898c8a8a3342604051611356979695949392919061390e565b60405180910390a150505050505050505050565b60006060600160009054906101000a900473ffffffffffffffffffffffffffffffffffffffff1673ffffffffffffffffffffffffffffffffffffffff16631f00ca7485856040518363ffffffff1660e01b81526004016113cb929190613b0d565b60006040518083038186803b1580156113e357600080fd5b505afa1580156113f7573d6000803e3d6000fd5b505050506040513d6000823e3d601f19601f820116820180604052508101906114209190612bae565b90508060008151811061142f57fe5b602002602001015191505092915050565b60008054906101000a900473ffffffffffffffffffffffffffffffffffffffff1681565b600260009054906101000a900473ffffffffffffffffffffffffffffffffffffffff1681565b600060011515600c846040516114a09190613622565b908152602001604051809103902060020160009054906101000a900460ff16151514611501576040517f08c379a00000000000000000000000000000000000000000000000000000000081526004016114f890613a32565b60405180910390fd5b6000600c846040516115139190613622565b9081526020016040518091039020600101836040516115329190613622565b90815260200160405180910390205490508091505092915050565b600c81805160208101820180518482526020830160208501208183528095505050505050600091509050806000018054600181600116156101000203166002900480601f01602080910402602001604051908101604052809291908181526020018280546001816001161561010002031660029004801561160f5780601f106115e45761010080835404028352916020019161160f565b820191906000526020600020905b8154815290600101906020018083116115f257829003601f168201915b5050505050908060020160009054906101000a900460ff16905082565b60008054906101000a900473ffffffffffffffffffffffffffffffffffffffff1673ffffffffffffffffffffffffffffffffffffffff163373ffffffffffffffffffffffffffffffffffffffff16146116ba576040517f08c379a00000000000000000000000000000000000000000000000000000000081526004016116b1906139d2565b60405180910390fd5b600115156009826040516116ce9190613622565b908152602001604051809103902060030160009054906101000a900460ff1615151461172f576040517f08c379a0000000000000000000000000000000000000000000000000000000008152600401611726906139b2565b60405180910390fd5b6000600460010160016101000a81548160ff0219169083151502179055506000600360009054906101000a900473ffffffffffffffffffffffffffffffffffffffff1690506009826040516117849190613622565b908152602001604051809103902060010160029054906101000a900473ffffffffffffffffffffffffffffffffffffffff16600360006101000a81548173ffffffffffffffffffffffffffffffffffffffff021916908373ffffffffffffffffffffffffffffffffffffffff1602179055506009826040516118069190613622565b908152602001604051809103902060046000820181600001908054600181600116156101000203166002900461183d9291906128db565b506001820160009054906101000a900460ff168160010160006101000a81548160ff0219169083151502179055506001820160019054906101000a900460ff168160010160016101000a81548160ff0219169083151502179055506001820160029054906101000a900473ffffffffffffffffffffffffffffffffffffffff168160010160026101000a81548173ffffffffffffffffffffffffffffffffffffffff021916908373ffffffffffffffffffffffffffffffffffffffff160217905550600282015481600201556003820160009054906101000a900460ff168160030160006101000a81548160ff0219169083151502179055509050506001600460010160016101000a81548160ff0219169083151502179055507f074a8a3d9b7f6c0c882d848484e5216b055445ba10d3fe6fb094c63762e867d581600360009054906101000a900473ffffffffffffffffffffffffffffffffffffffff16846040516119ac9392919061367d565b60405180910390a15050565b6060600b805480602002602001604051908101604052809291908181526020016000905b82821015611a98578382906000526020600020018054600181600116156101000203166002900480601f016020809104026020016040519081016040528092919081815260200182805460018160011615610100020316600290048015611a845780601f10611a5957610100808354040283529160200191611a84565b820191906000526020600020905b815481529060010190602001808311611a6757829003601f168201915b5050505050815260200190600101906119dc565b50505050905090565b60008054906101000a900473ffffffffffffffffffffffffffffffffffffffff1673ffffffffffffffffffffffffffffffffffffffff163373ffffffffffffffffffffffffffffffffffffffff1614611b2f576040517f08c379a0000000000000000000000000000000000000000000000000000000008152600401611b26906139d2565b60405180910390fd5b60011515600c88604051611b439190613622565b908152602001604051809103902060020160009054906101000a900460ff16151514611ba4576040517f08c379a0000000000000000000000000000000000000000000000000000000008152600401611b9b90613ad2565b60405180910390fd5b600c87604051611bb49190613622565b908152602001604051809103902060010183604051611bd39190613622565b908152602001604051809103902054881115611c24576040517f08c379a0000000000000000000000000000000000000000000000000000000008152600401611c1b90613a72565b60405180910390fd5b60011515600984604051611c389190613622565b908152602001604051809103902060010160009054906101000a900460ff16151514611c99576040517f08c379a0000000000000000000000000000000000000000000000000000000008152600401611c9090613ab2565b60405180910390fd5b6000600984604051611cab9190613622565b908152602001604051809103902060010160029054906101000a900473ffffffffffffffffffffffffffffffffffffffff16905088600c89604051611cf09190613622565b908152602001604051809103902060010185604051611d0f9190613622565b908152602001604051809103902060008282540392505081905550611d3581888b6125ed565b7f05fc03521ab8d3bca41e93441c5bee091e586765df5dd11d92021492b1a148328887878a8d89898942604051611d749998979695949392919061385e565b60405180910390a1505050505050505050565b600981805160208101820180518482526020830160208501208183528095505050505050600091509050806000018054600181600116156101000203166002900480601f016020809104026020016040519081016040528092919081815260200182805460018160011615610100020316600290048015611e495780601f10611e1e57610100808354040283529160200191611e49565b820191906000526020600020905b815481529060010190602001808311611e2c57829003601f168201915b5050505050908060010160009054906101000a900460ff16908060010160019054906101000a900460ff16908060010160029054906101000a900473ffffffffffffffffffffffffffffffffffffffff16908060020154908060030160009054906101000a900460ff16905086565b600b8181548110611ec557fe5b906000526020600020016000915090508054600181600116156101000203166002900480601f016020809104026020016040519081016040528092919081815260200182805460018160011615610100020316600290048015611f695780601f10611f3e57610100808354040283529160200191611f69565b820191906000526020600020905b815481529060010190602001808311611f4c57829003601f168201915b505050505081565b600160009054906101000a900473ffffffffffffffffffffffffffffffffffffffff1681565b60008054906101000a900473ffffffffffffffffffffffffffffffffffffffff1673ffffffffffffffffffffffffffffffffffffffff163373ffffffffffffffffffffffffffffffffffffffff1614612025576040517f08c379a000000000000000000000000000000000000000000000000000000000815260040161201c906139d2565b60405180910390fd5b600015156009826040516120399190613622565b908152602001604051809103902060010160019054906101000a900460ff1615151461209a576040517f08c379a000000000000000000000000000000000000000000000000000000000815260040161209190613a52565b60405180910390fd5b60006009826040516120ac9190613622565b908152602001604051809103902060010160006101000a81548160ff0219169083151502179055507fd58716f99624765c75903b90d3031b25aff109579ab518ef564d6bb77a052e27816009836040516121069190613622565b908152602001604051809103902060010160029054906101000a900473ffffffffffffffffffffffffffffffffffffffff1660405161214692919061375f565b60405180910390a150565b60008054906101000a900473ffffffffffffffffffffffffffffffffffffffff1673ffffffffffffffffffffffffffffffffffffffff163373ffffffffffffffffffffffffffffffffffffffff16146121df576040517f08c379a00000000000000000000000000000000000000000000000000000000081526004016121d6906139d2565b60405180910390fd5b60006008549050816008819055507fba755d08fa2993b44e444bb49b2d5434d8f33f12f8613e6bf2c138523fb51891818360405161221e929190613b3d565b60405180910390a15050565b60008054906101000a900473ffffffffffffffffffffffffffffffffffffffff1673ffffffffffffffffffffffffffffffffffffffff163373ffffffffffffffffffffffffffffffffffffffff16146122b8576040517f08c379a00000000000000000000000000000000000000000000000000000000081526004016122af906139d2565b60405180910390fd5b6122c0612962565b828160000181905250600181602001901515908115158152505080600c836040516122eb9190613622565b9081526020016040518091039020600082015181600001908051906020019061231592919061285b565b5060208201518160020160006101000a81548160ff0219169083151502179055509050507fb98a21cfe1c99e8c7291f54ead6ae7aa6a5132e57d8a9588d0805f468496e884838360405161236a929190613827565b60405180910390a1505050565b600360009054906101000a900473ffffffffffffffffffffffffffffffffffffffff1681565b600060608573ffffffffffffffffffffffffffffffffffffffff166323b872dd8686866040516024016123d2939291906136bb565b6040516020818303038152906040529060e01b6020820180517bffffffffffffffffffffffffffffffffffffffffffffffffffffffff8381831617835250505050604051612420919061360b565b6000604051808303816000865af19150503d806000811461245d576040519150601f19603f3d011682016040523d82523d6000602084013e612462565b606091505b5091509150818015612490575060008151148061248f57508080602001905181019061248e9190612bef565b5b5b6124cf576040517f08c379a00000000000000000000000000000000000000000000000000000000081526004016124c690613a92565b60405180910390fd5b505050505050565b606061251a826000815181106124e957fe5b6020026020010151600160009054906101000a900473ffffffffffffffffffffffffffffffffffffffff1686612724565b600160009054906101000a900473ffffffffffffffffffffffffffffffffffffffff1673ffffffffffffffffffffffffffffffffffffffff16638803dbee848660646008548161256657fe5b040287018530426040518663ffffffff1660e01b815260040161258d959493929190613b66565b600060405180830381600087803b1580156125a757600080fd5b505af11580156125bb573d6000803e3d6000fd5b505050506040513d6000823e3d601f19601f820116820180604052508101906125e49190612bae565b90509392505050565b600060608473ffffffffffffffffffffffffffffffffffffffff1663a9059cbb85856040516024016126209291906136f2565b6040516020818303038152906040529060e01b6020820180517bffffffffffffffffffffffffffffffffffffffffffffffffffffffff838183161783525050505060405161266e919061360b565b6000604051808303816000865af19150503d80600081146126ab576040519150601f19603f3d011682016040523d82523d6000602084013e6126b0565b606091505b50915091508180156126de57506000815114806126dd5750808060200190518101906126dc9190612bef565b5b5b61271d576040517f08c379a000000000000000000000000000000000000000000000000000000000815260040161271490613992565b60405180910390fd5b5050505050565b600060608473ffffffffffffffffffffffffffffffffffffffff1663095ea7b385856040516024016127579291906136f2565b6040516020818303038152906040529060e01b6020820180517bffffffffffffffffffffffffffffffffffffffffffffffffffffffff83818316178352505050506040516127a5919061360b565b6000604051808303816000865af19150503d80600081146127e2576040519150601f19603f3d011682016040523d82523d6000602084013e6127e7565b606091505b509150915081801561281557506000815114806128145750808060200190518101906128139190612bef565b5b5b612854576040517f08c379a000000000000000000000000000000000000000000000000000000000815260040161284b90613a12565b60405180910390fd5b5050505050565b828054600181600116156101000203166002900490600052602060002090601f016020900481019282601f1061289c57805160ff19168380011785556128ca565b828001600101855582156128ca579182015b828111156128c95782518255916020019190600101906128ae565b5b5090506128d7919061297e565b5090565b828054600181600116156101000203166002900490600052602060002090601f016020900481019282601f106129145780548555612951565b8280016001018555821561295157600052602060002091601f016020900482015b82811115612950578254825591600101919060010190612935565b5b50905061295e919061297e565b5090565b6040518060400160405280606081526020016000151581525090565b5b8082111561299757600081600090555060010161297f565b5090565b6000813590506129aa81613ebe565b92915050565b600082601f8301126129c157600080fd5b81356129d46129cf82613c78565b613c4b565b915081818352602084019350602081019050838560208402820111156129f957600080fd5b60005b83811015612a295781612a0f888261299b565b8452602084019350602083019250506001810190506129fc565b5050505092915050565b600082601f830112612a4457600080fd5b8151612a57612a5282613ca0565b613c4b565b91508181835260208401935060208101905083856020840282011115612a7c57600080fd5b60005b83811015612aac5781612a928882612b34565b845260208401935060208301925050600181019050612a7f565b5050505092915050565b600081519050612ac581613ed5565b92915050565b600082601f830112612adc57600080fd5b8135612aef612aea82613cc8565b613c4b565b91508082526020830160208301858383011115612b0b57600080fd5b612b16838284613e6b565b50505092915050565b600081359050612b2e81613eec565b92915050565b600081519050612b4381613eec565b92915050565b600060208284031215612b5b57600080fd5b6000612b698482850161299b565b91505092915050565b60008060408385031215612b8557600080fd5b6000612b938582860161299b565b9250506020612ba48582860161299b565b9150509250929050565b600060208284031215612bc057600080fd5b600082015167ffffffffffffffff811115612bda57600080fd5b612be684828501612a33565b91505092915050565b600060208284031215612c0157600080fd5b6000612c0f84828501612ab6565b91505092915050565b600060208284031215612c2a57600080fd5b600082013567ffffffffffffffff811115612c4457600080fd5b612c5084828501612acb565b91505092915050565b60008060408385031215612c6c57600080fd5b600083013567ffffffffffffffff811115612c8657600080fd5b612c9285828601612acb565b9250506020612ca38582860161299b565b9150509250929050565b600080600080600080600080610100898b031215612cca57600080fd5b600089013567ffffffffffffffff811115612ce457600080fd5b612cf08b828c01612acb565b9850506020612d018b828c0161299b565b9750506040612d128b828c01612b1f565b965050606089013567ffffffffffffffff811115612d2f57600080fd5b612d3b8b828c01612acb565b9550506080612d4c8b828c01612b1f565b94505060a089013567ffffffffffffffff811115612d6957600080fd5b612d758b828c01612acb565b93505060c089013567ffffffffffffffff811115612d9257600080fd5b612d9e8b828c01612acb565b92505060e089013567ffffffffffffffff811115612dbb57600080fd5b612dc78b828c01612acb565b9150509295985092959890939650565b60008060408385031215612dea57600080fd5b600083013567ffffffffffffffff811115612e0457600080fd5b612e1085828601612acb565b925050602083013567ffffffffffffffff811115612e2d57600080fd5b612e3985828601612acb565b9150509250929050565b600060208284031215612e5557600080fd5b6000612e6384828501612b1f565b91505092915050565b60008060408385031215612e7f57600080fd5b6000612e8d85828601612b1f565b925050602083013567ffffffffffffffff811115612eaa57600080fd5b612eb6858286016129b0565b9150509250929050565b600080600080600080600080610100898b031215612edd57600080fd5b6000612eeb8b828c01612b1f565b985050602089013567ffffffffffffffff811115612f0857600080fd5b612f148b828c01612acb565b9750506040612f258b828c0161299b565b965050606089013567ffffffffffffffff811115612f4257600080fd5b612f4e8b828c01612acb565b955050608089013567ffffffffffffffff811115612f6b57600080fd5b612f778b828c01612acb565b94505060a089013567ffffffffffffffff811115612f9457600080fd5b612fa08b828c01612acb565b93505060c089013567ffffffffffffffff811115612fbd57600080fd5b612fc98b828c01612acb565b92505060e0612fda8b828c01612b1f565b9150509295985092959890939650565b6000612ff6838361303d565b60208301905092915050565b600061300e83836131cc565b905092915050565b600061302283836135ed565b60208301905092915050565b61303781613e35565b82525050565b61304681613ded565b82525050565b61305581613ded565b82525050565b600061306682613d24565b6130708185613d82565b935061307b83613cf4565b8060005b838110156130ac5781516130938882612fea565b975061309e83613d5b565b92505060018101905061307f565b5085935050505092915050565b60006130c482613d2f565b6130ce8185613d93565b9350836020820285016130e085613d04565b8060005b8581101561311c57848403895281516130fd8582613002565b945061310883613d68565b925060208a019950506001810190506130e4565b50829750879550505050505092915050565b600061313982613d3a565b6131438185613da4565b935061314e83613d14565b8060005b8381101561317f5781516131668882613016565b975061317183613d75565b925050600181019050613152565b5085935050505092915050565b61319581613dff565b82525050565b60006131a682613d45565b6131b08185613db5565b93506131c0818560208601613e7a565b80840191505092915050565b60006131d782613d50565b6131e18185613dc0565b93506131f1818560208601613e7a565b6131fa81613ead565b840191505092915050565b600061321082613d50565b61321a8185613dd1565b935061322a818560208601613e7a565b61323381613ead565b840191505092915050565b600061324982613d50565b6132538185613de2565b9350613263818560208601613e7a565b80840191505092915050565b600061327c601f83613dd1565b91507f5472616e7366657248656c7065723a205452414e534645525f4641494c4544006000830152602082019050919050565b60006132bc602083613dd1565b91507f7468697320737461626c6520636f696e206973206e6f7420616c6c6f776564216000830152602082019050919050565b60006132fc602283613dd1565b91507f6f6e6c79206f776e65722063616e2063616c6c20746869732066756e6374696f60008301527f6e210000000000000000000000000000000000000000000000000000000000006020830152604082019050919050565b6000613362602483613dd1565b91507f70726f7669646520616e20616d6f756e742067726561746572207468616e207a60008301527f65726f21000000000000000000000000000000000000000000000000000000006020830152604082019050919050565b60006133c8601e83613dd1565b91507f5472616e7366657248656c7065723a20415050524f56455f4641494c454400006000830152602082019050919050565b6000613408601683613dd1565b91507f76656e646f7220646f6573206e6f7420657869737421000000000000000000006000830152602082019050919050565b6000613448602a83613dd1565b91507f64656661756c7420737461626c6520636f696e2063616e6e6f7420626520646560008301527f61637469766174656421000000000000000000000000000000000000000000006020830152604082019050919050565b60006134ae601383613dd1565b91507f6e6f7420656e6f7567682062616c616e636521000000000000000000000000006000830152602082019050919050565b60006134ee602483613dd1565b91507f5472616e7366657248656c7065723a205452414e534645525f46524f4d5f464160008301527f494c4544000000000000000000000000000000000000000000000000000000006020830152604082019050919050565b6000613554602d83613dd1565b91507f7468697320737461626c6520636f696e2069732064656163746976617465642060008301527f666f72207061796d656e747321000000000000000000000000000000000000006020830152604082019050919050565b60006135ba601283613dd1565b91507f696e76616c69642076656e646f722069642100000000000000000000000000006000830152602082019050919050565b6135f681613e2b565b82525050565b61360581613e2b565b82525050565b6000613617828461319b565b915081905092915050565b600061362e828461323e565b915081905092915050565b600060208201905061364e600083018461304c565b92915050565b6000604082019050613669600083018561304c565b613676602083018461304c565b9392505050565b6000606082019050613692600083018661304c565b61369f602083018561304c565b81810360408301526136b18184613205565b9050949350505050565b60006060820190506136d0600083018661304c565b6136dd602083018561304c565b6136ea60408301846135fc565b949350505050565b6000604082019050613707600083018561304c565b61371460208301846135fc565b9392505050565b6000602082019050818103600083015261373581846130b9565b905092915050565b600060208201905081810360008301526137578184613205565b905092915050565b600060408201905081810360008301526137798185613205565b9050613788602083018461304c565b9392505050565b600060408201905081810360008301526137a98185613205565b90506137b8602083018461318c565b9392505050565b600060c08201905081810360008301526137d98189613205565b90506137e8602083018861318c565b6137f5604083018761318c565b613802606083018661304c565b61380f60808301856135fc565b61381c60a083018461318c565b979650505050505050565b600060408201905081810360008301526138418185613205565b905081810360208301526138558184613205565b90509392505050565b6000610120820190508181036000830152613879818c613205565b9050818103602083015261388d818b613205565b905081810360408301526138a1818a613205565b90506138b0606083018961304c565b6138bd60808301886135fc565b81810360a08301526138cf8187613205565b905081810360c08301526138e38186613205565b90506138f260e08301856135fc565b6139006101008301846135fc565b9a9950505050505050505050565b600060e0820190508181036000830152613928818a613205565b905061393760208301896135fc565b81810360408301526139498188613205565b9050818103606083015261395d8187613205565b905061396c60808301866135fc565b61397960a083018561302e565b61398660c08301846135fc565b98975050505050505050565b600060208201905081810360008301526139ab8161326f565b9050919050565b600060208201905081810360008301526139cb816132af565b9050919050565b600060208201905081810360008301526139eb816132ef565b9050919050565b60006020820190508181036000830152613a0b81613355565b9050919050565b60006020820190508181036000830152613a2b816133bb565b9050919050565b60006020820190508181036000830152613a4b816133fb565b9050919050565b60006020820190508181036000830152613a6b8161343b565b9050919050565b60006020820190508181036000830152613a8b816134a1565b9050919050565b60006020820190508181036000830152613aab816134e1565b9050919050565b60006020820190508181036000830152613acb81613547565b9050919050565b60006020820190508181036000830152613aeb816135ad565b9050919050565b6000602082019050613b0760008301846135fc565b92915050565b6000604082019050613b2260008301856135fc565b8181036020830152613b34818461305b565b90509392505050565b6000604082019050613b5260008301856135fc565b613b5f60208301846135fc565b9392505050565b600060a082019050613b7b60008301886135fc565b613b8860208301876135fc565b8181036040830152613b9a818661305b565b9050613ba9606083018561304c565b613bb660808301846135fc565b9695505050505050565b600060e082019050613bd5600083018a6135fc565b613be260208301896135fc565b8181036040830152613bf4818861312e565b90508181036060830152613c088187613205565b90508181036080830152613c1c8186613205565b9050613c2b60a083018561302e565b81810360c0830152613c3d8184613205565b905098975050505050505050565b6000604051905081810181811067ffffffffffffffff82111715613c6e57600080fd5b8060405250919050565b600067ffffffffffffffff821115613c8f57600080fd5b602082029050602081019050919050565b600067ffffffffffffffff821115613cb757600080fd5b602082029050602081019050919050565b600067ffffffffffffffff821115613cdf57600080fd5b601f19601f8301169050602081019050919050565b6000819050602082019050919050565b6000819050602082019050919050565b6000819050602082019050919050565b600081519050919050565b600081519050919050565b600081519050919050565b600081519050919050565b600081519050919050565b6000602082019050919050565b6000602082019050919050565b6000602082019050919050565b600082825260208201905092915050565b600082825260208201905092915050565b600082825260208201905092915050565b600081905092915050565b600082825260208201905092915050565b600082825260208201905092915050565b600081905092915050565b6000613df882613e0b565b9050919050565b60008115159050919050565b600073ffffffffffffffffffffffffffffffffffffffff82169050919050565b6000819050919050565b6000613e4082613e47565b9050919050565b6000613e5282613e59565b9050919050565b6000613e6482613e0b565b9050919050565b82818337600083830152505050565b60005b83811015613e98578082015181840152602081019050613e7d565b83811115613ea7576000848401525b50505050565b6000601f19601f8301169050919050565b613ec781613ded565b8114613ed257600080fd5b50565b613ede81613dff565b8114613ee957600080fd5b50565b613ef581613e2b565b8114613f0057600080fd5b5056fea2646970667358221220c5f0a2d751e0ff0c45e89d9968aa455430898c07cede9fdcf63e4159750df0b064736f6c634300060c0033",
  "immutableReferences": {},
  "source": "// SPDX-License-Identifier: MIT\npragma solidity >0.6.1;\npragma experimental ABIEncoderV2;\n\nimport \"./uniswapv2/libraries/TransferHelper.sol\";\nimport \"./uniswapv2/UniswapV2ERC20.sol\";\nimport \"./uniswapv2/libraries/UniswapV2Library.sol\";\nimport \"./uniswapv2/interfaces/IUniswapV2Pair.sol\";\n\ninterface IUniswapV2Router02 {\n    function factory() external pure returns (address);\n\n    function WETH() external pure returns (address);\n\n    function swapExactTokensForTokens(\n        uint256 amountIn,\n        uint256 amountOutMin,\n        address[] calldata path,\n        address to,\n        uint256 deadline\n    ) external returns (uint256[] memory amounts);\n\n    function swapTokensForExactTokens(\n        uint256 amountOut,\n        uint256 amountInMax,\n        address[] calldata path,\n        address to,\n        uint256 deadline\n    ) external returns (uint256[] memory amounts);\n\n    function getAmountsOut(uint256 amountIn, address[] calldata path)\n        external\n        view\n        returns (uint256[] memory amounts);\n\n    function getAmountsIn(uint256 amountOut, address[] calldata path)\n        external\n        view\n        returns (uint256[] memory amounts);\n}\n\ncontract PaymentContract {\n\nstruct StableCoinStruct {\n        string symbol;\n        bool isActive;\n        bool isDefault;\n        address stableCoinAddress;\n        uint256 ratio;\n        bool initialized;\n    }\n    \n    address public owner;\n    address public swapRouter;\n    address public WBNB;\n    address public stableCoinDefault;\n    StableCoinStruct public stableCoinDefaultObj;\n    uint256 public slippage;\n    // UniswapV2ERC20 stableCoinContract;\n\n    // mapping(string => address) public stableCoins;\n\n    \n\n    mapping(string => StableCoinStruct) public stableCoins;\n    mapping(string => address) public stableCoinAddresses;\n\n    string[] public stableCoinsList;\n\n    function getStableCoinsList() public view returns (string[] memory) {\n        return stableCoinsList;\n    }\n\n    // Defining the vendors array\n    //struct vendor {\n    //    string vendorName;\n    //    uint vendorBalance;\n    //}\n\n    struct vendor {\n        string vendorName;\n        mapping(string => uint256) vendorBalance;\n        bool isValid;\n    }\n\n    //vendor[] public vendors;\n\n    mapping(string => vendor) public vendors;\n\n    modifier onlyOwner() {\n        require(msg.sender == owner, \"only owner can call this function!\");\n        _;\n    }\n\n    // Events\n    event paymentSuccessful(\n        string _transactionId,\n        uint256 _amountInUSD,\n        string _vendorId,\n        string _fiatSymbol,\n        uint256 _fiatAmount,\n        address buyer,\n        uint256 _timestamp\n    );\n\n    event newVendorRegistered(string name, string _vendorId);\n    event updatedRouter(address _previousRouter, address _newRouter);\n    event stableCoinDefaultSet(\n        address _previousStableCoinAddress,\n        address _newStableCoinAddress,\n        string _newStableCoinSymbol\n    );\n    event updatedSlippage(uint256 _previousSlippage, uint256 _newSlippage);\n    event swapSuccessful(\n        uint256 _tokenAmount,\n        uint256 _amountInUSD,\n        uint256[] amountOut,\n        string _tokenSymbol,\n        string _stableCoinSymbol,\n        address buyer,\n        string _transactionId\n    );\n    event tradeSuccessful(\n        string _vendorId,\n        string _transactionId,\n        string _tradeId,\n        address _traderAddress,\n        uint256 _amount,\n        string _stableCoinSymbol,\n        string _traderEmail,\n        uint256 _tradePrice,\n        uint256 _timestamp\n    );\n\n    event addedStableCoin(\n        string _newStableCoinSymbol,\n        address _newStableCoinAddress\n    );\n    \n    event disabledStableCoin(\n        string _stableCoinSymbol,\n        address _stableCoinAddress\n    );\n\n    event enabledStableCoin(\n        string _stableCoinSymbol,\n        address _stableCoinAddress\n    );\n    \n    event ownershipTransferred(address _previousOwner, address _newOwner, uint256 _timestamp);\n\n    event unregisteredStableCoin(\n        string _unregisteredStableCoinSymbol,\n        address _defaultStableCoinAddress\n    );\n\n    constructor(\n        address _swapRouter,\n        address _WBNB,\n        //address _stableCoin,\n        string memory _stableCoinSymbol,\n        address _stableCoinAddress,\n        uint256 _slippage\n    ) public {\n        swapRouter = _swapRouter;\n        WBNB = _WBNB;\n        // this.addStableCoin((_stableCoinSymbol), _stableCoinAddress);\n        // // stableCoins[_stableCoinSymbol] = _stableCoinAddress;\n        // // stableCoinsList.push(StableCoinStruct(_stableCoinSymbol, true));\n        // //stableCoin = _stableCoin;\n        // stableCoinContract = UniswapV2ERC20(stableCoin);\n        \n        stableCoinDefault = _stableCoinAddress;\n        stableCoinDefaultObj = StableCoinStruct(\n        \t_stableCoinSymbol,\n          true,\n          true,\n          _stableCoinAddress,\n          1,\n          true\n        );\n        \n        emit stableCoinDefaultSet(address(0), _stableCoinAddress, _stableCoinSymbol);\n        \n        stableCoinAddresses[_stableCoinSymbol] = _stableCoinAddress;\n        stableCoinsList.push(_stableCoinSymbol);\n        stableCoins[_stableCoinSymbol] = stableCoinDefaultObj;\n        slippage = _slippage;\n        owner = msg.sender;\n    }\n\n    function setRouter(address _swapRouter, address _WBNB) public onlyOwner {\n        address _previousRouter = swapRouter;\n        swapRouter = _swapRouter;\n        WBNB = _WBNB;\n        emit updatedRouter(_previousRouter, _swapRouter);\n    }\n\n    function setStableCoinDefault(string memory _stableCoinSymbol)\n        public\n        onlyOwner\n    {\n        \n        require(\n            stableCoins[_stableCoinSymbol].initialized == true,\n            \"this stable coin is not allowed!\"\n        );\n        \n        stableCoinDefaultObj.isDefault = false;\n  \n        address _previousStableCoin = stableCoinDefault;\n\t\t\t\t\n        stableCoinDefault = stableCoins[_stableCoinSymbol].stableCoinAddress;\n        stableCoinDefaultObj = stableCoins[_stableCoinSymbol];  \n        stableCoinDefaultObj.isDefault = true;\n        \n        // stableCoinContract = UniswapV2ERC20(stableCoin);\n        emit stableCoinDefaultSet(_previousStableCoin, stableCoinDefault, _stableCoinSymbol);\n    }\n\n    // function setStableCoinDefault(address _stableCoin) public onlyOwner {\n    //     address _previousStableCoin = stableCoinDefault;\n    //     stableCoinDefault = _stableCoin;\n    //     // stableCoinContract = UniswapV2ERC20(stableCoin);\n    //     emit updatedStableCoin(_previousStableCoin, _stableCoin);\n    // }\n\n    function setSlippage(uint256 _slippage) public onlyOwner {\n        uint256 _previousSlippage = slippage;\n        slippage = _slippage;\n        emit updatedSlippage(_previousSlippage, _slippage);\n    }\n\n    /*\n   function registerANewVendor(string memory _name) public onlyOwner returns(uint){\n        uint _Id = vendors.length - 1;\n        vendor memory newVendor;\n        newVendor.vendorName = _name;\n        newVendor.vendorBalance = 0;\n        \n        vendors.push(newVendor);\n        emit newVendorRegistered(_name, _Id);\n        return _Id;\n    }\n**/\n\n    function registerANewVendor(string memory _name, string memory _vendorId)\n        public\n        onlyOwner\n    {\n        // uint _Id = vendors.length - 1;\n        vendor memory newVendor;\n        newVendor.vendorName = _name;\n        newVendor.isValid = true;\n        // newVendor.vendorBalance[stableCoinContract.symbol()] = 0;\n\n        // vendors.push(newVendor);\n        vendors[_vendorId] = newVendor;\n\n        emit newVendorRegistered(_name, _vendorId);\n    }\n\n    function vendorBalance(\n        string memory vendorId,\n        string memory stableCoinSymbol\n    ) public view returns (uint256) {\n        require(vendors[vendorId].isValid == true, \"vendor does not exist!\");\n        return vendors[vendorId].vendorBalance[stableCoinSymbol];\n    }\n\n    // Allows a buyer to make payment\n    function makePayment(\n        string memory _vendorId,\n        address _token,\n        uint256 _amountInUSD,\n        string memory _fiatSymbol,\n        uint256 _fiatAmount,\n        string memory _tokenSymbol,\n        string memory _transactionId,\n        string memory _stableCoinSymbol\n    ) public {\n        require(vendors[_vendorId].isValid == true, \"vendor does not exist!\");\n\n        require(\n            _amountInUSD > 0 && _fiatAmount > 0,\n            \"provide an amount greater than zero!\"\n        );\n\n        // Always take WBNB path to get a better rate\n        address[] memory _path;\n\n        /*\n        if (_token == WBNB) {\n             _path = new address[](2);\n            _path[0] = _token;\n            _path[1] = stableCoin;\n        } else{\n            _path = new address[](3);\n            _path[0] = _token;\n            _path[1] = WBNB;\n            _path[2] = stableCoin;\n        }\n        **/\n\n        // require(\n        //     stableCoins[_stableCoinSymbol].isActive == true,\n        //     \"this stable coin is deactivated for payments!\"\n        // );\n\n        // stableCoin = stableCoins[_stableCoinSymbol].stableCoinAddress;\n        address stableCoin;\n\n        if (stableCoins[_stableCoinSymbol].isActive) {\n            stableCoin = stableCoinAddresses[_stableCoinSymbol];\n        } else {\n            stableCoin = stableCoinDefault;\n            // notify that unregistered stable coin was passed in for use but replaced with default\n            unregisteredStableCoin(\n                _stableCoinSymbol,\n                stableCoinDefault\n            );\n        }\n\n        _path = new address[](2);\n        _path[0] = _token;\n        _path[1] = stableCoin;\n\n        // msg.sender must approve this contract to spend their tokens\n\n        if (_token != stableCoin) {\n            // Get the amount of token to swap\n            uint256 _tokenAmount = _requiredTokenAmount(_amountInUSD, _path);\n\n            // Takes the tokens from buyer account\n            TransferHelper.safeTransferFrom(\n                _token,\n                msg.sender,\n                address(this),\n                _tokenAmount\n            );\n\n            // Swap to stableCoin\n            uint256[] memory amountOut = _swap(\n                _tokenAmount,\n                _amountInUSD,\n                _path\n            );\n\n            emit swapSuccessful(\n                _tokenAmount,\n                _amountInUSD,\n                amountOut,\n                _tokenSymbol,\n                _stableCoinSymbol,\n                msg.sender,\n                _transactionId\n            );\n        } else {\n            TransferHelper.safeTransferFrom(\n                _token,\n                msg.sender,\n                address(this),\n                _amountInUSD\n            );\n        }\n        // Updates vendor's balance\n        vendors[_vendorId].vendorBalance[_stableCoinSymbol] += _amountInUSD;\n\n        // string memory _transactionId = _generateTransactionId(_vendorId);\n\n        // emit payment recieve event\n        emit paymentSuccessful(\n            _transactionId,\n            _amountInUSD,\n            _vendorId,\n            _fiatSymbol,\n            _fiatAmount,\n            msg.sender,\n            block.timestamp\n        );\n    }\n\n    // Internal funtions\n\n    function _requiredTokenAmount(uint256 _amountInUSD, address[] memory _path)\n        public\n        view\n        returns (uint256)\n    {\n        uint256[] memory _tokenAmount = IUniswapV2Router02(swapRouter)\n            .getAmountsIn(_amountInUSD, _path);\n        return _tokenAmount[0];\n    }\n\n    /*\n    function _generateTransactionId(string memory _vendorID) public view returns(string memory){\n        uint256 time = block.timestamp;\n        uint256 exponent;\n        while (time >= 10) {\n            time /= 10;\n            exponent++;\n        }\n        // uint _transactionID = _vendorID * 10 ** (exponent + 1) + block.timestamp;\n        string memory _transactionID = _vendorID + block.timestamp;\n        return _transactionID;\n    }\n    \n    **/\n\n    // Swap from tokens to a stablecoin\n    function _swap(\n        uint256 _tokenAmount,\n        uint256 _amountInUSD,\n        address[] memory _path\n    ) internal returns (uint256[] memory amountOut) {\n        // Approve the router to swap token.\n        TransferHelper.safeApprove(_path[0], swapRouter, _tokenAmount);\n\n        amountOut = IUniswapV2Router02(swapRouter).swapTokensForExactTokens(\n            _amountInUSD,\n            _tokenAmount + (slippage / 100) * _tokenAmount,\n            _path,\n            address(this),\n            block.timestamp\n        );\n\n        // emit swapSuccessful(_tokenAmount, _amountInUSD, amountOut);\n    }\n\n    // SendTokens() is the function that releases the token to a trader\n    // from is expected to be a vendor's ID\n    function sendTokens(\n        uint256 _amount,\n        string memory _from,\n        address _traderAddress,\n        string memory _transactionId,\n        string memory _tradeId,\n        string memory _stableCoinSymbol,\n        string memory _traderEmail,\n        uint256 _tradePrice\n    ) public onlyOwner {\n        require(vendors[_from].isValid == true, \"invalid vendor id!\");\n        require(\n            _amount <= vendors[_from].vendorBalance[_stableCoinSymbol],\n            \"not enough balance!\"\n        );\n\n        require(\n            stableCoins[_stableCoinSymbol].isActive == true,\n            \"this stable coin is deactivated for payments!\"\n        );\n\n        address stableCoin = stableCoins[_stableCoinSymbol].stableCoinAddress;\n\n        vendors[_from].vendorBalance[_stableCoinSymbol] -= _amount;\n        TransferHelper.safeTransfer(stableCoin, _traderAddress, _amount);\n\n        emit tradeSuccessful(\n            _from,\n            _transactionId,\n            _tradeId,\n            _traderAddress,\n            _amount,\n            _stableCoinSymbol,\n            _traderEmail,\n            _tradePrice,\n            block.timestamp\n        );\n    }\n\n    // Need to check logic of this\n    function _isEnoughLiquidity(\n        address _token,\n        address _stableCoin,\n        uint256 _amountInUSD\n    ) internal view returns (bool) {\n        // Get reserve\n        IUniswapV2Pair pair = IUniswapV2Pair(\n            UniswapV2Library.pairFor(\n                IUniswapV2Router02(swapRouter).factory(),\n                _token,\n                _stableCoin\n            )\n        );\n        (uint256 reserves0, uint256 reserves1, ) = pair.getReserves();\n        uint256 stableCoinReserve = _stableCoin == pair.token0()\n            ? reserves0\n            : reserves1;\n        /* Check price impact\n            if price impact is higher than slippage, then there is'nt enough liquidity for the trade\n        */\n        if (_amountInUSD / stableCoinReserve > slippage / 100) {\n            return false;\n        } else return true;\n    }\n\n    function addStableCoin(\n        string memory _stableCoinSymbol,\n        address _stableCoinAddress\n    ) public onlyOwner {\n        stableCoinAddresses[_stableCoinSymbol] = _stableCoinAddress;\n        stableCoinsList.push(_stableCoinSymbol);\n        stableCoins[_stableCoinSymbol] = StableCoinStruct(\n            _stableCoinSymbol,\n            true,\n            false,\n            _stableCoinAddress,\n            0,\n            true\n        );\n\n        emit addedStableCoin(_stableCoinSymbol, _stableCoinAddress);\n    }\n\n    function disableStableCoin(string memory _stableCoinSymbol)\n        public\n        onlyOwner\n    {\n    \n    \t\trequire(\n        \tstableCoins[_stableCoinSymbol].isDefault == false,\n        \t\"default stable coin cannot be deactivated!\"\n        );\n        \n        // StableCoinStruct memory sc = stableCoins[_stableCoinSymbol];\n        stableCoins[_stableCoinSymbol].isActive = false;\n\n        emit disabledStableCoin(\n            _stableCoinSymbol,\n            stableCoins[_stableCoinSymbol].stableCoinAddress\n        );\n    }\n    \n    function enableStableCoin(string memory _stableCoinSymbol)\n        public\n        onlyOwner\n    {\n    \n    \t\trequire(\n        \tstableCoins[_stableCoinSymbol].isDefault == false,\n        \t\"default stable coin cannot be deactivated!\"\n        );\n        \n        // StableCoinStruct memory sc = stableCoins[_stableCoinSymbol];\n        stableCoins[_stableCoinSymbol].isActive = true;\n\n        emit enabledStableCoin(\n            _stableCoinSymbol,\n            stableCoins[_stableCoinSymbol].stableCoinAddress\n        );\n    }\n\n    function vendorBalanceFor(\n        string memory _vendorId,\n        string memory _stableCoinSymbol\n    ) public view returns (uint256) {\n        require(vendors[_vendorId].isValid == true, \"vendor does not exist!\");\n        uint256 _balance = vendors[_vendorId].vendorBalance[_stableCoinSymbol];\n        return _balance;\n    }\n\n    function totalVendorBalance(string memory _vendorId)\n        public\n        view\n        returns (uint256)\n    {\n        require(vendors[_vendorId].isValid == true, \"vendor does not exist!\");\n        uint256 _balance = 0;\n        for (uint256 i = 0; i < stableCoinsList.length; i++) {\n            _balance += vendorBalanceFor(_vendorId, stableCoinsList[i]);\n        }\n        return _balance;\n    }\n\n    function transferOwnershipTo(address _newOwner) public onlyOwner {\n        address previousOwner = owner;\n        owner = _newOwner;\n        emit ownershipTransferred(previousOwner, owner, block.timestamp);\n    }\n}\n",
  "sourcePath": "/home/olamide/repos/clients/cryptobank/PaymentContract/contracts/PaymentContract.sol",
  "compiler": {
    "name": "solc",
    "version": "0.6.12+commit.27d51765.Emscripten.clang"
  },
  "schemaVersion": "3.4.5",
  "updatedAt": "2022-05-21T00:07:32.682Z",
  "networkType": "ethereum",
  "devdoc": {
    "kind": "dev",
    "methods": {},
    "version": 1
  },
  "userdoc": {
    "kind": "user",
    "methods": {},
    "version": 1
  }
}